:100000000000012089030000710300007303000059
:100010007503000077030000790300000000000072
:100020000000000000000000000000007B03000052
:100030007D030000000000007F030000810300003A
:100040008303000083030000AD0E0000E1180000F0
:100050008303000083030000CD0B00008303000036
:100060008303000083030000830300008303000078
:100070008303000083030000830300008303000068
:1000800083030000B13300008303000083030000FA
:100090008303000083030000830300008303000048
:1000A0008303000083030000830300008303000038
:1000B0008303000083030000000000000000000034
:1000C0008303000083030000830300008303000018
:1000D000830300008303000083030000000000008E
:1000E0000000000000000000000000000000000010
:1000F0000000000000000000000000000000000000
:1001000000000000000000000000000000000000EF
:1001100000000000000000000000000000000000DF
:1001200000000000000000000000000000000000CF
:1001300000000000000000000000000000000000BF
:1001400000000000000000000000000000000000AF
:10015000000000000000000000000000000000009F
:10016000000000000000000000000000000000008F
:10017000000000000000000000000000000000007F
:10018000000000000000000000000000000000006F
:10019000000000000000000000000000000000005F
:1001A000000000000000000000000000000000004F
:1001B000000000000000000000000000000000003F
:1001C000000000000000000000000000000000002F
:1001D000000000000000000000000000000000001F
:1001E000000000000000000000000000000000000F
:1001F00000000000000000000000000000000000FF
:100200003A493B480A1A02D0072291438D463949A0
:1002100039480A1A06D00722914381F3098802223D
:1002200082F3148835483649364A00F041F836489A
:100230003649374A00F03CF836483749374A00F02B
:1002400037F837483749384A00F032F837483849E4
:10025000384A00F02DF838483849394A00F028F873
:1002600038483949394A00F023F8394839490022D9
:1002700000F036F838483949002200F031F83848A3
:100280003849091A05F0ECFD374A904725482649B8
:10029000884205D00268043003B4904703BCF7E7F6
:1002A00000208646EC4600200021304A9047FEE7B9
:1002B000884214D0521A12D003460B43134303242E
:1002C000234206D1036804300B600431043AF9D1AB
:1002D0007047037801300B700131013AF9D1704752
:1002E000884202D002700130FAE770470000012016
:1002F00000E000200000012000000120FC7400004C
:10030000000000206C000020E4030000E403000073
:100310003E600000FC74000000000020000000208F
:10032000AC600000AC600000AC600000AC6000009D
:10033000AC600000AC600000AC600000AC6000008D
:10034000F9740000687500006C0000206C0000204B
:100350006C0000207C0700207C0700207C07002028
:100360007C0700207C270020B10300009957000083
:10037000FEE7FEE7FEE7FEE7FEE7FEE7FEE7FEE755
:10038000FEE7FEE700F002B8FFF7FCBF0F484FF0B2
:100390000701884385460E4880470E48016841F4AE
:1003A00070010160BFF34F8FBFF36F8FFFF728BF5E
:1003B00009480A490A4A884207D0521A05D00378E8
:1003C00001300B700131013AF9D170470000012072
:1003D0009558000088ED00E0AC60000000000020AF
:0403E00000000020F9
:1003E40000B583B00190019B1B681F2B04D90549FC
:1003F40040F2CD1002F0E8FF4FF0A043184603B0DE
:100404005DF804FBAC60000000B585B001900846BF
:1004140011461A4603468DF803300B468DF8023018
:1004240013468DF8013001AB1846FFF7D9FF03904E
:100434009DF803209DF802305B001A439DF80130BB
:100444009B001A439DF818301B0242EA03019DF8F1
:100454001C301B04019A1943039B02F5E07243F814
:10046400221000BF05B05DF804FB00B585B0039011
:100474000023019300230093002301220121039808
:10048400FFF7C2FF00BF05B05DF804FB00B585B0FF
:1004940003900B468DF80B309DF80B30002201922F
:1004A40000220092002200210398FFF7ADFF00BF55
:1004B40005B05DF804FB00B585B0019001AB1846AA
:1004C400FFF78EFF0390019B012202FA03F3194602
:1004D400039800F04CF800BF05B05DF804FB00B5CC
:1004E40085B0019001AB1846FFF77AFF0390019B9A
:1004F400012202FA03F31946039800F042F800BF00
:1005040005B05DF804FB00B585B0019001AB184659
:10051400FFF766FF0390039BD3F804350293029B15
:10052400DA43019B012101FA03F31A40039BC3F848
:100534000825019B01229A40029B1A40039BC3F8A1
:100544000C2500BF05B05DF804FB00B583B0019035
:100554000091009B002B03D10198FFF7C0FF02E03C
:100564000198FFF7A8FF00BF03B05DF804FB82B059
:1005740001900091019B009AC3F8082500BF02B0C6
:10058400704782B001900091019B009AC3F80C253A
:1005940000BF02B07047000000B583B00190019B1A
:1005A400032B03D90749472002F00EFF064A019B9B
:1005B40013441B7801211846FFF7C7FF00BF03B09F
:1005C4005DF804FB086100006461000000B583B0BD
:1005D4000023019305E00198FFF7DEFF019B01333F
:1005E4000193019B032BF6D900BF00BF03B05DF854
:1005F40004FB000000B583B00190019B032B03D9D9
:1006040007495F2002F0E0FE064A019B13441B7871
:100614001846FFF778FF00BF03B05DF804FB00BF86
:10062400086100006461000000B583B000230193F9
:1006340009E0094A019B13441B781846FFF715FF8C
:10064400019B01330193019B032BF2D9FFF7BEFFFA
:1006540000BF03B05DF804FB6461000000B583B023
:10066400002301930AE0094A019B13441B780321E8
:100674001846FFF70BFF019B01330193019B032BEA
:10068400F1D900BF00BF03B05DF804FB686100004E
:1006940000B583B00190019B03F00103002B01D04E
:1006A400FFF7C2FF019B03F00203002B01D0FFF709
:1006B400D5FF00BF03B05DF804FB000000B589B0AE
:1006C40001900091009B0793019B1B788DF80830E3
:1006D400019B5B680393019B9B68DBB28DF8103030
:1006E400019BDB680593019B1B69DBB28DF8183015
:1006F400074A079B52F823300649079A51F82210FB
:1007040002AA1046984700BF09B05DF804FB00BF79
:100714006C0000207800002010B58AB0039002918C
:1007240001920093039B1B7809932249099B019A28
:1007340041F823202049099B009A41F823200023F3
:1007440008931E4B04AC0FCB84E80F00029B1B786C
:100754008DF81030029B5B788DF81130029B9B78EA
:100764008DF81230029BDB788DF81330029B1B79D5
:100774008DF81530029B5B798DF81630029B9B68CF
:100784000693029B1B7B8DF81C30029B5B7B8DF8D0
:100794001D30039B181D019B002B01D0084A00E06B
:1007A4000022099B04A900F019FE0890089B184632
:1007B4000AB010BD6C000020780000206C610000BD
:1007C400C106000000B589B001900091009B079319
:1007D400019B1B788DF80C30019B5B680493019B93
:1007E4009B68DBB28DF81430019BDB680693074AE3
:1007F400079B52F823300649079A51F8221003AA9E
:100804001046984700BF09B05DF804FB840000203F
:100814008800002000B589B001900091009B0793E7
:10082400019B1B788DF80C30019B5B680493019B42
:100834009B68DBB28DF81430019BDB680693074A92
:10084400079B52F823300649079A51F8221003AA4D
:100854001046984700BF09B05DF804FB84000020EF
:100864008800002030B58FB0039002910192039B61
:100874001B780C9326490C9B019A41F82320029B78
:100884001A6924490C9B41F82320029B5B7F19467B
:10089400214A0C9B13440A461A70029B04AC1D4661
:1008A4000FCD0FC495E80F0084E80F000C9B08934C
:1008B40000230D93039B1B781A46174B9B5C002B5C
:1008C4000DD0039B181D019B002B01D0134A00E09F
:1008D400002204AB194602F091F90D9014E0039B39
:1008E4001B781A460C4B9B5C002B0DD1039B03F128
:1008F4000C00019B002B01D0094A00E0002204AB4C
:10090400194601F039FB0D900D9B18460FB030BD10
:1009140084000020880000208C000020C90700000B
:100924001908000000B583B00346ADF80630BDF8E1
:100934000630184600F026F803461B68012B0CBF4E
:1009440001230023DBB2184603B05DF804FB00B5B5
:1009540085B00346ADF80630BDF80630184600F001
:1009640011F803461A4600231360BDF806301846F2
:1009740000F008F803461B680393039B00BF05B00F
:100984005DF804FB82B00346ADF80630BDF80630CE
:1009940003F1804303F5C043184602B070470000DA
:1009A40082B00190034BD3F80423019B13401846F3
:1009B40002B070470060004082B00190054A019B7C
:1009C40003F5A27352F823301B0A03F01F031846E1
:1009D40002B070470060004082B00190064A019B5B
:1009E40003F5A27352F823301B0C03F00303DBB2AC
:1009F400184602B0704700BF0060004000B583B0E5
:100A04000190019B1B681F2B04D9054940F2CD10AE
:100A140002F0DAFC4FF0A043184603B05DF804FB83
:100A2400D861000000B585B001900B468DF8033005
:100A340001AB1846FFF7E2FF0390019A039B02F50E
:100A4400E07253F82230019A23F44031039B02F5FB
:100A5400E07243F82210019A039B02F5E07253F806
:100A640022109DF803301B04019A1943039B02F5DD
:100A7400E07243F8221000BF05B05DF804FB00B536
:100A840085B0019001AB1846FFF7B8FF0390019AB7
:100A9400039B02F5E07253F822301B0C03F00303AE
:100AA400DBB2184605B05DF804FB82B00190019BEF
:100AB400D3F81035184602B07047000000B587B06F
:100AC4000390029101924FF0A0430493039A029B76
:100AD4001344012B04D9124940F2FD2002F074FCA6
:100AE400039B059311E0059B9B0018336B4453F85B
:100AF400083C1846FFF7D9FF0246019B1A60019B88
:100B040004330193059B01330593039A029B134419
:100B1400059A9A42E7D300BF00BF07B05DF804FB13
:100B2400D861000084B001900091009B0393019B65
:100B3400DB080293019B03F0070301930122019B4D
:100B440002FA03F30399029A0A44127813401846EE
:100B540004B0704784B001900091009B0393019B03
:100B6400DB080293019B03F007030193039A029BA2
:100B740013441B785AB20121019B01FA03F35BB2BF
:100B8400134359B2039A029B1344CAB21A7000BFAA
:100B940004B0704782B00190044A019B134430337F
:100BA40093F90030184602B0704700BF900000204F
:100BB40082B00190034A019B52F82330184602B0D8
:100BC400704700BF9000002000B595B0002310933B
:100BD400002303934FF48073ADF83A30012312934A
:100BE40000230F9321E0BDF83A301846FFF79AFE30
:100BF4000346002B0ED01298FFF7D2FE0346002BBB
:100C040008D0BDF83A301846FFF7A1FE109A129B9F
:100C140013431093129B5B001293BDF83A300433D4
:100C2400ADF83A300F9B01330F930F9B072BDAD9A2
:100C34004FF4BE70FFF776FE0346002B0DD04FF441
:100C4400BE70FFF784FE109B43F00043109303AB88
:100C54001A4601210020FFF731FF109BDBB2002B65
:100C640029D00123129300230F9321E0129A109BA1
:100C74001340002B16D00F98FFF79EFE0D900F988F
:100C8400FFF7AAFE03468DF833300F98FFF790FF65
:100C94000B900B9B002B05D09DF833200B9B11462A
:100CA4000D989847129B5B0012930F9B01330F938F
:100CB4000F9B072BDAD9109B002B80F2EE800023C8
:100CC4008DF84F3000230293002311930AE0119B07
:100CD4009B0050336B444FF0FF3243F84C2C119B74
:100CE40001331193119B002BF1D000238DF84F3069
:100CF40000230F9378E06B4A0F9B1344503393F90E
:100D040000308DF82B309DF82B3023F0C00309936D
:100D1400644A0F9B1344503393F90030B3F1FF3FFF
:100D24005FD001AB19460998FFF7FCFE0346002B80
:100D340057D09DF82B309B098DF823300998FFF785
:100D440029FF03461846FFF733FF0790079B002B44
:100D540003D19DF82330032B43D19DF82330032B7B
:100D640004D102AB19460998FFF7F4FE0998FFF77E
:100D740086FE03468DF81B3003AB19460998FFF72E
:100D8400D1FE0590059B002B03D09DF81B30022B50
:100D940006D0059B002B24D19DF81B30032B20D1BA
:100DA4009DF82330032B13D19DF81B30022B01D166
:100DB400032300E002238DF813309DF81330194605
:100DC4000998FFF72FFE9DF84F3001338DF84F300F
:100DD400079B002B05D09DF82320079B11460998FB
:100DE40098470F9B01330F930F9B032B83D99DF8D7
:100DF4004F30002B4CD001238DF84E306B461A46F1
:100E040001210020FFF75AFE0023119314E0119BE7
:100E14009B0050336B4453F8502C119B9B00503370
:100E24006B4453F8443C9A4203D000238DF84E306F
:100E340005E0119B01331193119B002BE7D09DF822
:100E44004E30002B03D000238DF84F3020E00023D8
:100E540011931AE0119B9B0050336B4453F8502CB0
:100E6400119B9B0050336B4443F8442C119B9B0013
:100E740050336B4453F8482C119B9B0050336B4404
:100E840043F84C2C119B01331193119B002BE1D09F
:100E94009DF84F30002B7FF428AF00BF15B05DF8EC
:100EA40004FB00BF9000002008B5064B1B68002B14
:100EB40003D10549512002F087FA024B1B68984779
:100EC40008BD00BFEC000020A862000082B00190C1
:100ED400019B044A934201D1034B00E000231846CE
:100EE40002B0704700200040EC00002000B587B03D
:100EF40001900091019B002B03D11849772002F047
:100F040063FA0198FFF7E2FF0590059B002B1ED0C2
:100F140000238DF81330002002F000FA059B1B79A2
:100F2400002B03D001238DF8133005E0059B009AB4
:100F34001A60059B01221A71002002F003FA9DF841
:100F44001330002B03D011230393039B02E00023EF
:100F54000393039B184607B05DF804FBA8620000E6
:100F640000B585B00190019B002B03D10A499B2059
:100F740002F02AFA0198FFF7A9FF0390039B002BC4
:100F840005D0039B00221A60039B00221A7100BF44
:100F940005B05DF804FB00BFA862000082B0034600
:100FA4008DF807309DF90730002B0CDB9DF80730D6
:100FB40003F01F0205499DF907305B09012000FA7F
:100FC40002F241F8232000BF02B0704700E100E0C4
:100FD40082B0034600918DF807309DF90730002B4D
:100FE4000ADB009BDAB20C499DF907305201D2B2F8
:100FF4000B4483F800230BE0009BDAB207499DF809
:10100400073003F00F03043B5201D2B20B441A76AB
:1010140000BF02B0704700BF00E100E000ED00E057
:1010240082B00190019B03F06043B3F1005F0CBFF9
:1010340001230023DBB2184602B0704782B001904E
:10104400019B1B0B5BB2184602B0704700B583B01E
:1010540003460A468DF8073013468DF806309DF88E
:101064000630072B03D908496B2002F0ADF99DF82F
:1010740006209DF9073011461846FFF7A9FF00BF67
:1010840003B05DF804FB00BF1063000000B583B03B
:1010940003468DF807309DF907301846FFF77EFFA9
:1010A40000BF03B05DF804FB82B001900B468DF8DD
:1010B40003309DF80330019A134401221A6000BFE3
:1010C40002B0704784B001900B46ADF80230BDF811
:1010D4000230019A134400221A60BDF80230019ACA
:1010E40013441B680393039B00BF04B0704782B092
:1010F40001900B46ADF80230BDF80230019A13445A
:101104001B68002B14BF01230023DBB2184602B076
:10111400704782B001900091019B009AC3F80423A8
:1011240000BF02B0704782B001900091019B009A09
:10113400C3F8082300BF02B0704782B00190019B3E
:101144000722C3F8002500BF02B0704784B00390A3
:10115400029101920093039B029AC3F80825039B12
:10116400019AC3F80C25039B009AC3F8102500BF0D
:1011740004B0704782B001900091009A019BC3F8BB
:10118400242500BF02B0704784B0039002910192FD
:10119400029A039BC3F84425039B019AC3F848258C
:1011A40000BF04B0704784B0039002910192029A88
:1011B400039BC3F83425039B019AC3F8382500BF69
:1011C40004B0704784B001900B468DF80330134689
:1011D4008DF802309DF80230002B14BF0123002348
:1011E400DBB203939DF80330032B10D0032B13DCE5
:1011F400012B02D0022B05D00EE0039B43F0020327
:1012040003930AE0039B43F00403039305E0039B69
:1012140043F00603039300E000BF019B039AC3F865
:10122400542500BF04B0704782B001900B468DF87E
:1012340003309DF80320019BC3F8C02500BF02B012
:10124400704782B00190019B0122C3F8502500BF72
:1012540002B0704782B00190019B0022C3F8502570
:1012640000BF02B0704782B00190019B0122C3F815
:10127400402500BF02B0704782B00190019B00225C
:10128400C3F8402500BF02B07047000000B583B02A
:101294000190019B1B681F2B04D9054940F2CD1016
:1012A40002F092F84FF0A043184603B05DF804FB37
:1012B4006C63000000B585B00190084611461A46DB
:1012C40003468DF803300B468DF8023013468DF833
:1012D400013001AB1846FFF7D9FF03909DF80320B6
:1012E4009DF802305B001A439DF801309B001A43BD
:1012F4009DF818301B0242EA03019DF81C301B04C0
:10130400019A1943039B02F5E07243F8221000BFCF
:1013140005B05DF804FB00B585B00390002301938C
:10132400002300930023012201210398FFF7C2FF49
:1013340000BF05B05DF804FB00B585B003900B4613
:101344008DF80B309DF80B300022019200220092A0
:10135400002200210398FFF7ADFF00BF05B05DF840
:1013640004FB00B585B0019001AB1846FFF78EFF72
:101374000390019B012202FA03F31946039800F03B
:1013840018F800BF05B05DF804FB00B585B0019006
:1013940001AB1846FFF77AFF0390019B012202FA82
:1013A40003F31946039800F00EF800BF05B05DF88A
:1013B40004FB82B001900091019B009AC3F80825B8
:1013C40000BF02B0704782B001900091019B009A67
:1013D400C3F80C2500BF02B07047000000B58DB003
:1013E4000590049103920293049B002B03D170494E
:1013F400AD2001F0E9FF059B1B791A461346DB007B
:1014040013449B006B4A13440A930A9B1B7F002BD3
:1014140003D008230793079BC5E0059B1B6809932A
:10142400059B1A68059B1B791946634B53F82130B9
:1014340019461046FFF75AFD0346002B03D011232B
:101444000793079BAFE00A9B039A1A600A9B029AD0
:101454005A60049B1B7B012B05D8049B1B78184600
:10146400FFF793FF04E0049B1B781846FFF779FF0E
:10147400049B1B7818460023019300230093002348
:1014840000220121FFF716FF049B5B78FF2B09D094
:10149400049B5B780B930B98FFF777FF0B98FFF790
:1014A4003AFF02E04FF0FF330B93049B9B78FF2B32
:1014B40007D0049B9B78089301210898FFF73CFF11
:1014C40002E04FF0FF330893049B9A780A9B83F859
:1014D4002020049BDA780A9BDA77049BDB78FF2BC5
:1014E40017D0049B1B79002B05D0049BDB7818468E
:1014F400FFF74BFF04E0049BDB781846FFF731FF4E
:10150400049BDB781846FFF706FF049B1A790A9BB5
:101514009A77049B1B781946089B0B9A0998FFF746
:1015240015FE049B9B6819460998FFF723FE049B4C
:10153400197B049B5B7B1A460998FFF743FE049BC7
:101544009B7919460998FFF76FFE0A9B1B68002BCD
:1015540003D040210998FFF7DCFD0998FFF7EDFD62
:101564000A9B1B68002B15D0059B1B681846FFF7C8
:1015740065FD03461A46049B5B7919461046FFF73E
:1015840065FD059B1B681846FFF758FD0346184682
:10159400FFF77CFD0A9B00225A770A9B01221A77E7
:1015A40000230793079B18460DB05DF804FB00BFAA
:1015B400D0630000F40000203464000000B583B060
:1015C4000190019BDB7FFF2B0ED0019B9B7F002BA7
:1015D40005D0019BDB7F1846FFF7D7FE04E0019B93
:1015E400DB7F1846FFF7BDFE019B00225A77019B63
:1015F40000221A72019B1B68019A02F10800019AE9
:1016040052681146984700BF03B05DF804FB00B56B
:1016140083B001900B468DF803309DF8033083F0BE
:101624000103DBB2002B04D040210198FFF77BFDBE
:1016340003E040210198FFF76CFD00BF03B05DF8A3
:1016440004FB00B583B001900091009B03F00103FB
:10165400002B03D00198FFF7F4FD02E00198FFF797
:10166400F9FD009B03F00203002B03D00198FFF760
:10167400FAFD02E00198FFF7FFFD00BF03B05DF83B
:1016840004FB00B587B00390029101920093019B83
:101694001B68002B0AD0019B1B681846FFF7C0FC8F
:1016A400034683F00103DBB2002B0ED1019B9B6840
:1016B400002B11D0019B9B681846FFF7B1FC034631
:1016C40083F00103DBB2002B06D0029B00225A7781
:1016D40010230593059B54E0019B1968019B5B68EB
:1016E4001A460398FFF750FD019B9968019BDB683C
:1016F4001A460398FFF757FD4FF48C710398FFF7D0
:10170400E1FC00990398FFF79CFF009B03F008039A
:10171400002B03D110210398FFF7C6FC029B1B6822
:10172400002B1FD100BF4FF48C710398FFF7DFFC2F
:10173400034683F00103DBB2002BF4D1029BDB7F71
:10174400FF2B1BD0029B9B7F002B05D0029BDB7FD2
:101754001846FFF71AFE11E0029BDB7F1846FFF7DD
:1017640000FE0BE0009B03F00403002B0CBF0123DD
:101774000023DBB219460398FFF749FF00230593C2
:10178400059B184607B05DF804FB000010B586B051
:10179400039002910192039B1B791A461346DB00C6
:1017A40013449B00394A13440593059B1B7F002B6C
:1017B40004D1374940F2322001F006FE029B1B6837
:1017C400002B08D1029B5B68002B04D0304940F207
:1017D400332001F0F9FD029B9B68002B08D1029B8A
:1017E400DB68002B04D02A494FF40D7001F0ECFDA6
:1017F400039B1B79002B07D1029BDB68FF2B03D8CB
:10180400029B5B68FF2B04D9214940F2352001F08B
:10181400DBFD00230493059B5B7FDBB2002B03D02D
:1018240011230493049B2EE0059B1B68002B07D017
:10183400019B03F01403002B02D1059B01225A776C
:10184400059B029A03F10C0413460FCB84E80F00A6
:10185400059BDB7FFF2B0ED0059B9B7F002B05D0C8
:10186400059BDB7F1846FFF77CFD04E0059BDB7FCF
:101874001846FFF78AFD039B1868019B029A059995
:10188400FFF7FFFE0346184606B010BDF400002023
:10189400D063000000B583B0019000914FF48C71C7
:1018A4000198FFF724FC0346002B10D04FF48C71F1
:1018B4000198FFF707FC009B1B68002B04D1064925
:1018C4004FF4277001F080FD0098FFF777FE00BF0A
:1018D40003B05DF804FB00BFD063000008B5034902
:1018E4000348FFF7D7FF00BF08BD00BFF400002086
:1018F4000030004082B003468DF807309DF9073070
:10190400002B0CDB9DF8073003F01F0205499DF9FD
:1019140007305B09012000FA02F241F8232000BFDE
:1019240002B0704700E100E082B003468DF8073052
:101934009DF90730002B13DB9DF8073003F01F02DD
:1019440009499DF907305B09012000FA02F22033AE
:1019540041F82320BFF34F8F00BFBFF36F8F00BF49
:1019640000BF02B0704700BF00E100E082B0034650
:1019740000918DF807309DF90730002B0ADB009B9E
:10198400DAB20C499DF907305201D2B20B4483F804
:1019940000230BE0009BDAB207499DF8073003F0FF
:1019A4000F03043B5201D2B20B441A7600BF02B0BB
:1019B400704700BF00E100E000ED00E082B001905C
:1019C400019B1B0B5BB2184602B0704700B583B095
:1019D40003460A468DF8073013468DF806309DF805
:1019E4000630072B03D908496B2001F0EDFC9DF864
:1019F40006209DF9073011461846FFF7B7FF00BFD0
:101A040003B05DF804FB00BF3864000000B583B088
:101A140003468DF807309DF907301846FFF76AFF33
:101A240000BF03B05DF804FB00B583B003468DF836
:101A340007309DF907301846FFF776FF00BF03B063
:101A44005DF804FB84B001900B46ADF80230BDF89C
:101A54000230019A134400221A60BDF80230019A40
:101A640013441B680393039B00BF04B0704782B008
:101A740001900B46ADF80230BDF80230019A1344D0
:101A84001B68002B14BF01230023DBB2184602B0ED
:101A9400704782B001900091019B009AC3F804231F
:101AA40000BF02B0704782B001900091019BD3F84F
:101AB4000423009B1340002B14BF01230023DBB23B
:101AC400184602B0704782B001900091019B009AC1
:101AD400C3F8082300BF02B0704784B00190019B93
:101AE400D3F880340393019B039AC3F88024039BA7
:101AF400184604B0704782B00190019B0422C3F8D9
:101B0400002500BF02B0704782B00190019B002203
:101B1400C3F8002500BF02B0704784B0039002915F
:101B24000192039B019AC3F81425039B029AC3F8FC
:101B34000C2500BF04B0704700B583B001904FF08E
:101B4400FF324FF0FF310198FFF7E7FF00BF03B00A
:101B54005DF804FB82B00190019BD3F80C35184664
:101B640002B0704782B00190019BD3F81435184637
:101B740002B0704782B00190019BD3F80835184633
:101B840002B0704782B00190019BD3F8103518461B
:101B940002B0704784B0039002910192039B029AB1
:101BA400C3F80825039B019AC3F8102500BF04B0AD
:101BB400704700B583B001904FF0FF324FF0FF3112
:101BC4000198FFF7E7FF00BF03B05DF804FB82B0A4
:101BD4000190019BD3F81835DBB2184602B0704768
:101BE40082B001900B468DF803309DF80320019BD1
:101BF400C3F81C2500BF02B0704782B001900B46A9
:101C04008DF803309DF80330019A134401221A60C1
:101C140000BF02B0704782B001900B468DF80330CC
:101C240013468DF802309DF803209DF802301343CB
:101C3400DBB21A46019BC3F86C2500BF02B07047A3
:101C440082B001900091019B009AC3F8242500BF43
:101C540002B0704700B583B00190019B1B681F2B35
:101C640004D9054940F2CD1001F0AEFB4FF0A0437A
:101C7400184603B05DF804FB9464000000B585B019
:101C84000190084611461A4603468DF803300B4668
:101C94008DF8023013468DF8013001AB1846FFF77A
:101CA400D9FF03909DF803209DF802305B001A438E
:101CB4009DF801309B001A439DF818301B0242EA3C
:101CC40003019DF81C301B04019A1943039B02F580
:101CD400E07243F8221000BF05B05DF804FB00B5C4
:101CE40085B0039000230193002300930023012275
:101CF40001210398FFF7C2FF00BF05B05DF804FBA4
:101D040000B585B003900B468DF80B309DF80B3071
:101D14000022019200220092002200210398FFF782
:101D2400ADFF00BF05B05DF804FB00B585B00390BE
:101D34000023019300230093002301220021039830
:101D4400FFF79CFF00BF05B05DF804FB00B585B04C
:101D5400019001AB1846FFF77DFF0390019B012220
:101D640002FA03F31946039800F004F800BF05B023
:101D74005DF804FB82B001900091019B009AC3F8C6
:101D8400082500BF02B0704700B583B001900091F0
:101D9400009B1B68B3F1FF3F09D0009B1B681846EA
:101DA400FFF7D4FF009B1B681846FFF798FF009BC2
:101DB4005B68B3F1FF3F05D0009B5B6800211846C8
:101DC400FFF79EFF019B1A68009B9B69194610460A
:101DD400FFF736FF019B1868009B597D009B1B7D14
:101DE4001A46FFF718FF019B1868009B1968009BAF
:101DF4005B681A46FFF791FE009B1B7D012B22D1E5
:101E0400009B9B68B3F1FF3F05D0009B9B680021BA
:101E14001846FFF775FF009BDB68B3F1FF3F09D05D
:101E2400009BDB681846FFF791FF009BDB681846B0
:101E3400FFF755FF019B1868009BD968009B9B68BE
:101E44001A46FFF7A7FE00BF03B05DF804FB0000CD
:101E540000B583B001900B468DF80330019B1B68DD
:101E64004FF48E711846FFF7EDFD019B1B684FF48C
:101E7400A2711846FFF7E6FD019B1B680E49184640
:101E8400FFF707FE019B1B681846FFF797FD034603
:101E94001A469DF8033019461046FFF797FD019B3B
:101EA4001B681846FFF78AFD03461846FFF7AEFD88
:101EB40000BF03B05DF804FB8000020000B583B0EE
:101EC4000190019B1B6808491846FFF7FCFD019B24
:101ED4001B681846FFF772FD03461846FFF7A4FD7A
:101EE40000BF03B05DF804FB8402020000B587B0B4
:101EF4000190019B1B681846FFF72CFE0590019B7F
:101F04001B681846FFF72EFE0490019B1B681846B9
:101F1400FFF730FE0390019B1B681846FFF732FE63
:101F24000290019B1B681846FFF706FE019B1B6885
:101F34001846FFF73EFE059BB3F1FF3F02D005981C
:101F4400FFF7F3FE049BB3F1FF3F02D00498FFF7C1
:101F5400ECFE029BB3F1FF3F02D00298FFF7E5FECF
:101F6400039BB3F1FF3F02D00398FFF7DEFE00BFEF
:101F740007B05DF804FB000000B587B00390029140
:101F84000192029B002B03D12D49AA2001F01CFAD7
:101F9400039B1B791A462C2302FB03F3294A13449F
:101FA400049300230593049B93F82A30002B03D059
:101FB40008230593059B3EE0039B1A68039B1B794A
:101FC4001946214B53F8213019461046FEF78EFF6F
:101FD4000346002B03D011230593059B2BE00299A4
:101FE4000398FFF7D1FE049B019A5A60029B1A6979
:101FF400049B1A60049B5B68002B05D0029B1B7F2B
:1020040019460398FFF724FF039B1B681846FFF744
:1020140072FD049B00229A61049B0022DA61049BF6
:10202400002283F82920049B00225A61049B012288
:1020340083F82A20059B184607B05DF804FB00BF0F
:10204400F8640000180100205C65000000B585B04C
:102054000190019B1B791A462C2302FB03F3114ABE
:1020640013440393019B1B681846FFF74DFD039B24
:102074005B68002B02D00198FFF720FF0198FFF75F
:1020840035FF019B1B681846FEF76AFF039B00227D
:1020940083F82A20039B00225A6000BF05B05DF834
:1020A40004FB00BF1801002000B585B00190009129
:1020B4004FF48E710198FFF7C5FC009B9A68009B52
:1020C4001B6A13441B788DF80F30009B1B6A5A1C43
:1020D400009B1A629DF80F3019460198FFF780FDA6
:1020E40000BF05B05DF804FB00B585B00190009118
:1020F400009B5B69039316E0009B93F82830DBB2E6
:10210400002B01D0002314E04FF48E710198FFF7E7
:10211400AEFC034683F00103DBB2002BECD1009943
:102124000198FFF7C1FF009B1B6A039A9A42EBD800
:102134000123184605B05DF804FB000000B587B024
:10214400039002910192039B1B791A462C2302FBF4
:1021540003F33C4A13440493049B93F82A30012B61
:1021640004D039494FF48C7001F02EF9029B002BF6
:1021740004D1354940F2191001F026F9019B002BD6
:1021840004D131494FF48D7001F01EF9039800F029
:102194005DF80346002B03D011230593059B4CE007
:1021A400049B019A5A61049B029A9A60049B002240
:1021B4001A62049B002283F8282000230593039BC2
:1021C4001B684FF48E711846FFF73CFC039B1B6899
:1021D40008211846FFF711FD039B1B680499184654
:1021E400FFF762FF049B5B68002B25D1039B1B68F0
:1021F40004991846FFF778FF034683F00103DBB226
:10220400002B02D00F23059313E000BF039B1B6830
:102214004FF48E711846FFF72AFC034683F001033E
:10222400DBB2002BF2D1039B1B680C211846FFF78D
:10223400E4FC049B00225A61059B184607B05DF834
:1022440004FB00BF18010020F864000082B0019074
:10225400019B1B791946074A2C2301FB03F3134402
:1022640014331B68002B14BF01230023DBB2184670
:1022740002B070471801002010B582B0019000919F
:10228400009B9B69002B08D14FF484710198FFF7E0
:10229400D9FB0198FFF79BFC13E04FF4847101987C
:1022A400FFF7D0FB009BDA68009B5B6AD4180198A7
:1022B400FFF78DFC03462370009B5B6A5A1C009B4E
:1022C4005A6202B010BD00B589B003900291019228
:1022D40001238DF81030029B0693019B0593039B09
:1022E4005B68039A116804AA1046984700BF09B0B6
:1022F4005DF804FB00B587B00190009100238DF8D0
:102304000830009B0493019B9B680393019B00226C
:102314005A61019B5B68019A116802AA10469847AA
:1023240000BF07B05DF804FB00B58BB001900091CD
:102334004FF400710198FFF7B6FB0346002B39D028
:102344004FF492710198FFF792FB0346002B31D0B2
:102354004FF492710198FFF775FB4FF401710198E6
:10236400FFF7B1FB009B93F8293083F00103DBB244
:10237400002B03D004210198FFF73FFC02238DF8C2
:102384000C300198FFF7A9FB03460693009B9B6959
:102394000593009BDB680493009B00229A61009BD9
:1023A4000022DA61009B5B68009A116803AA104658
:1023B400984752E004210198FFF775FB0346002B70
:1023C4004BD04FF484710198FFF751FB0346002B67
:1023D40043D000990198FFF74FFF009B9A69009B37
:1023E4005B6A9A4239D1009BDB69002B19D0009BB0
:1023F400DB680993009B5B6A0893009BDA69009B86
:102404009A61009B1A69009BDA60009B0022DA61E2
:10241400009B00225A62099A08990098FFF753FF1B
:102424001BE0009B93F8293083F00103DBB2002BFF
:1024340003D004210198FFF7E0FB4FF401710198E8
:10244400FFF741FB009B00229A61009B596A009BA5
:10245400DB681A460098FFF736FF4FF48E71019837
:10246400FFF705FB0346002B24D0009B5B69079311
:10247400009B1B6A079A9A420DD9009B93F8283057
:10248400DBB283F00103DBB2002B04D00099019886
:10249400FFF70AFE0EE04FF48E710198FFF7D2FAAF
:1024A400009B5B69002B05D0009B5B691946009873
:1024B400FFF720FF4FF4A2710198FFF7D8FA034603
:1024C400002B1CD04FF4A2710198FFF7BBFA009BBC
:1024D40093F82930002B03D000210198FFF78DFBDE
:1024E400009B9B69002B0AD0009B00229A61009BF1
:1024F400596A009BDB681A460098FFF7E4FE00BFA8
:102504000BB05DF804FB000008B503490348FFF76E
:102514000BFF00BF08BD00BF1801002000200040D1
:1025240082B003468DF807309DF90730002B0CDB91
:102534009DF8073003F01F0205499DF907305B0938
:10254400012000FA02F241F8232000BF02B07047D4
:1025540000E100E082B003468DF807309DF90730B2
:10256400002B13DB9DF8073003F01F0209499DF986
:1025740007305B09012000FA02F2203341F82320DE
:10258400BFF34F8F00BFBFF36F8F00BF00BF02B018
:10259400704700BF00E100E082B0034600918DF86F
:1025A40007309DF90730002B0ADB009BDAB20C4997
:1025B4009DF907305201D2B20B4483F800230BE09B
:1025C400009BDAB207499DF8073003F00F03043B80
:1025D4005201D2B20B441A7600BF02B0704700BF5A
:1025E40000E100E000ED00E082B00190019B03F007
:1025F4006043B3F1005F0CBF01230023DBB2184634
:1026040002B0704782B00190019B1B0B5BB218466D
:1026140002B0704700B583B003460A468DF8073010
:1026240013468DF806309DF80630072B03D9084968
:102634006B2000F0C9FE9DF806209DF90730114675
:102644001846FFF7A9FF00BF03B05DF804FB00BF05
:102654006065000000B583B003468DF807309DF92E
:1026640007301846FFF75CFF00BF03B05DF804FBBA
:1026740000B583B003468DF807309DF9073018463E
:10268400FFF768FF00BF03B05DF804FB84B001905E
:102694000B46ADF80230BDF80230019A1344002213
:1026A4001A60BDF80230019A13441B680393039B1C
:1026B40000BF04B0704782B001900B46ADF8023001
:1026C400BDF80230019A13441B68002B14BF012388
:1026D4000023DBB2184602B0704782B0019000912B
:1026E400019BD3F80022009BDB431A40019BC3F8F3
:1026F400002200BF02B0704782B001900091019B9C
:10270400009AC3F8042300BF02B0704782B001905E
:102714000091019B009AC3F8082300BF02B07047E0
:1027240084B00190019BD3F880340393019B039AF6
:10273400C3F88024039B184604B0704782B001900C
:10274400019B0822C3F8002500BF02B0704782B085
:102754000190019B0022C3F8002500BF02B070471E
:1027640084B0039002910192039B029AC3F80C2552
:10277400039B019AC3F8142500BF04B0704700B549
:1027840083B001904FF0FF324FF0FF310198FFF713
:10279400E7FF00BF03B05DF804FB82B00190019B2A
:1027A400D3F80C35184602B0704782B00190019BF3
:1027B400D3F81435184602B0704782B00190019BDB
:1027C400D3F80835184602B0704782B00190019BD7
:1027D400D3F81035184602B0704784B003900291C4
:1027E4000192039B029AC3F80825039B019AC3F83C
:1027F400102500BF04B0704700B583B001904FF0BE
:10280400FF324FF0FF310198FFF7E7FF00BF03B03D
:102814005DF804FB82B001900B468DF803309DF8FF
:102824000330019A134401221A6000BF02B07047BA
:1028340082B001900B468DF8033013468DF80230B8
:102844009DF803209DF802301343DBB21A46019B26
:10285400C3F86C2500BF02B0704782B001900091AC
:10286400019B009AC3F8242500BF02B0704784B0CE
:10287400039002910192029A039BC3F84425039B9F
:10288400019AC3F8482500BF04B0704782B0019094
:10289400019BD3F84C35184602B0704782B00190C2
:1028A400019BD3F83C35184602B0704700B583B09D
:1028B4000190019B1B681F2B04D9054940F2CD10E0
:1028C40000F082FD4FF0A043184603B05DF804FB0E
:1028D400BC65000000B585B00190084611461A4653
:1028E40003468DF803300B468DF8023013468DF8FD
:1028F400013001AB1846FFF7D9FF03909DF8032080
:102904009DF802305B001A439DF801309B001A4386
:102914009DF818301B0242EA03019DF81C301B0489
:10292400019A1943039B02F5E07243F8221000BF99
:1029340005B05DF804FB00B585B003900023019356
:10294400002300930023012201210398FFF7C2FF13
:1029540000BF05B05DF804FB00B585B003900B46DD
:102964008DF80B309DF80B3000220192002200926A
:10297400002200210398FFF7ADFF00BF05B05DF80A
:1029840004FB00B585B0039000230193002300935A
:102994000023012200210398FFF79CFF00BF05B02C
:1029A4005DF804FB00B585B0019001AB1846FFF754
:1029B4007DFF0390019B012202FA03F31946039859
:1029C40000F004F800BF05B05DF804FB82B001908C
:1029D4000091019B009AC3F8082500BF02B070471C
:1029E40000B583B001900091009B1B68B3F1FF3FD9
:1029F40009D0009B1B681846FFF7D4FF009B1B6897
:102A04001846FFF798FF009B5B68B3F1FF3F05D0C2
:102A1400009B5B6800211846FFF79EFF019B1A6824
:102A2400009B9B6919461046FFF717FF019B186826
:102A3400009B597D009B1B7D1A46FFF7F9FE019B05
:102A44001868009B1968009B5B681A46FFF788FEAC
:102A5400009B1B7D012B22D1009B9B68B3F1FF3FA0
:102A640005D0009B9B6800211846FFF775FF009B6B
:102A7400DB68B3F1FF3F09D0009BDB681846FFF722
:102A840091FF009BDB681846FFF755FF019B186810
:102A9400009BD968009B9B681A46FFF79EFE00BF07
:102AA40003B05DF804FB000000B583B001900B4651
:102AB4008DF80330019B1B684FF488711846FFF7AB
:102AC400E5FD019B1B684FF490711846FFF7DEFD8E
:102AD400019B1B684FF492711846FFF7D7FD019BC9
:102AE4001B684FF4A2711846FFF7D0FD019B1B68C9
:102AF4004FF4AC711846FFF7C9FD019B1B680F49E1
:102B04001846FFF7F9FD019B1B681846FFF77AFD8D
:102B140003461A469DF8033019461046FFF77AFD1E
:102B2400019B1B681846FFF76DFD03461846FFF727
:102B340091FD00BF03B05DF804FB00BF1003420029
:102B440000B583B00190019B1B6808491846FFF744
:102B5400DDFD019B1B681846FFF754FD034618462C
:102B6400FFF786FD00BF03B05DF804FB10034200CD
:102B740000B587B00190019B1B681846FFF70DFE56
:102B84000590019B1B681846FFF70FFE0490019BFC
:102B94001B681846FFF711FE0390019B1B6818463B
:102BA400FFF713FE0290019B1B681846FFF7E7FD31
:102BB400019B1B681846FFF71FFE059BB3F1FF3FFF
:102BC40002D00598FFF7DDFE049BB3F1FF3F02D06E
:102BD4000498FFF7D6FE029BB3F1FF3F02D00298A0
:102BE400FFF7CFFE039BB3F1FF3F02D00398FFF73B
:102BF400C8FE00BF07B05DF804FB000000B587B055
:102C0400039002910192029B002B03D12B49CF2008
:102C140000F0DAFB039B1B791A461346DB001344CE
:102C24009B00274A1344049300230593049B93F8C1
:102C34002030002B03D008230593059B3AE0039B27
:102C44001A68039B1B7919461E4B53F82130194609
:102C54001046FEF74BF90346002B03D011230593CE
:102C6400059B27E002990398FFF7BAFE049B019A9B
:102C74005A60029B1A69049B1A60049B5B68002BD0
:102C840005D0029B1B7F19460398FFF70DFF039B9A
:102C94001B681846FFF752FD049B00229A61049BAF
:102CA4000022DA61049B00225A61049B012283F80A
:102CB4002020059B184607B05DF804FB2066000041
:102CC400440100208866000000B585B00190019B96
:102CD4001B791A461346DB0013449B00244A134411
:102CE4000393039B5B68002B02D00198FFF728FF36
:102CF400019B1B6820211846FFF7EFFC019B1B6812
:102D040004211846FFF786FD019B1B684FF4AC7144
:102D14001846FFF7BBFC019B1B680C211846FFF704
:102D240079FD00BF019B1B684FF4AC711846FFF797
:102D3400C2FC034683F00103DBB2002BF2D1019BFA
:102D44001B681846FFF703FD0198FFF711FF019B6D
:102D54001B681846FEF704F9039B002283F8202021
:102D6400039B00225A6000BF05B05DF804FB00BF5E
:102D74004401002000B589B0039002910192039BA5
:102D84001B791A461346DB0013449B00564A13442E
:102D94000593059B93F82030012B04D0534940F24E
:102DA4002D1000F011FB029B002B04D14F494FF46E
:102DB400977000F009FB019B002B04D14B4940F2B2
:102DC4002F1000F001FB039B1B79002B02D1019B08
:102DD400FF2B04D945494FF4987000F0F5FA029896
:102DE400FFF702FC034683F00103DBB2002B03D0A0
:102DF40010230793079B73E0039800F079F80346C8
:102E0400002B03D011230793079B69E0059B019ACC
:102E14005A61059B029A9A6000230793039B1B68DF
:102E24004FF490711846FFF731FC039B1B684FF475
:102E3400AC711846FFF72AFC039B1868059B996838
:102E4400059B5B691A46FFF712FD039B1B6808216B
:102E54001846FFF7DFFC059B5B68002B3FD1039B03
:102E64001B684FF490711846FFF725FC03468DF854
:102E74001B30039B1B684FF4AC711846FFF71BFC17
:102E840003468DF81A309DF81B3083F00103DBB242
:102E9400002B06D09DF81A3083F00103DBB2002B1F
:102EA400DDD19DF81A30002B02D00F23079313E0D5
:102EB400039B1B680C211846FFF7ACFC00BF039B67
:102EC4001B684FF4AC711846FFF7F5FB034683F01B
:102ED4000103DBB2002BF2D1059B00225A61079B50
:102EE400184609B05DF804FB440100202066000088
:102EF40082B00190019B1B791946084A0B46DB00FE
:102F04000B449B00134414331B68002B14BF012390
:102F14000023DBB2184602B0704700BF4401002012
:102F240000B589B003900291019201238DF810300D
:102F3400029B0693019B0593039B5B68039A1168AC
:102F440004AA1046984700BF09B05DF804FB00B519
:102F540087B00190009100238DF80830009B049302
:102F6400019B9B680393019B00225A61019B5B6850
:102F7400019A116802AA1046984700BF07B05DF88D
:102F840004FB00B589B0019000914FF4927101984F
:102F9400FFF791FB0346002B22D04FF49271019866
:102FA400FFF774FB02238DF808300198FFF7B8FB94
:102FB400034605930198FFF771FC03460493009BB5
:102FC400DB680393009B00229A61009B0022DA6174
:102FD400009B5B68009A116802AA104698473BE080
:102FE4004FF488710198FFF766FB0346002B33D03A
:102FF4004FF488710198FFF749FB0198FFF74EFCE5
:103004000790009B9B69079A9A4225D1009BDB6934
:10301400002B17D0009BDB68069320210198FFF753
:103024005CFB009BDA69009B9A61009B1A69009B18
:10303400DA60009B0022DA61069A07990098FFF78C
:103044006FFF09E0009B00229A61009BDB681A462F
:1030540007990098FFF764FF4FF4A2710198FFF7F6
:103064002AFB0346002B18D04FF4A2710198FFF7F6
:103074000DFB009B9B69002B0FD0009B00229A61E3
:10308400009B0022DA610198FFF708FC0146009BCF
:10309400DB681A460098FFF743FF4FF490710198DC
:1030A400FFF709FB0346002B14D04FF490710198ED
:1030B400FFF7ECFA0C210198FFF7ACFB009B5B696E
:1030C400002B07D00198FFF7E1FB0346194600984F
:1030D400FFF73DFF4FF4AC710198FFF7ECFA03469C
:1030E400002B10D04FF4AC710198FFF7CFFA009B7E
:1030F4005B69002B07D00198FFF7C8FB034619460C
:103104000098FFF724FF00BF09B05DF804FB00003E
:1031140008B503490348FFF734FF00BF08BD00BFEB
:10312400440100200020004086B0039002910192E7
:1031340001238DF817309DF81730214A039B136043
:103144001F4A029B53601E4A019B9360039B44F2F7
:103154000102934213D0039B44F20202934221D111
:10316400019B174AD360164BDB681B881A46144B25
:103174009A61134BDB685B68114AD36112E0019BCF
:103184000F4A13610E4B1B699B680D4A53610C4B2C
:103194001B691B680A4A9361094B1B695B68084AEF
:1031A400D36100BF72B600BF00BF9DF81730DBB219
:1031B400002BFAD162B600BF00BF06B0704700BF53
:1031C4006801002000B583B002900091019244F29E
:1031D400010071466A4600F003F803B000BD00BF69
:1031E40030B58BB007900691059272B600BF01F01E
:1031F400E1FF01F0A5FD0346002BFAD1079B44F241
:103204000102934216D0079B44F2020293423ED13C
:10321400059B09932C4A2D4BD31ADB081B0443F05E
:103224000100099B5B681A46099B1B88284901F029
:103234004AFD39E0059B0893234A244BD31ADB0843
:103244001B0443F00104089B9D68089B9B68184677
:1032540000F0E2FF03461846089B5B681946089B8A
:103264001B68069A02920193009103462A46194963
:10327400204601F03CFD144A144BD31ADB081B040E
:1032840043F001031449184601F0FEFC0CE00E4A19
:103294000E4BD31ADB081B0443F00103069A0F49B3
:1032A400184601F0FFFC00BF0D4B1B6803F001033F
:1032B400002B00D000BE059A06990798FFF734FF4B
:1032C40000BF0BB030BD00BF68600000406000006C
:1032D400006700001C670000446700005867000096
:1032E400F0ED00E072B600BF034B1B680133024AE5
:1032F400136000BF704700BF88010020064B1B68A5
:10330400013B054A1360044B1B68002B01D162B6D4
:1033140000BF00BF704700BF8801002000B583B024
:10332400019000F025F80346012B03D00449432003
:1033340000F04AF8FFF7D6FF00BF03B05DF804FBC6
:10334400E867000000B583B003468DF8073000F04D
:103354000FF80346012B03D00449512000F034F840
:10336400FFF7CCFF00BF03B05DF804FBE867000083
:1033740084B0EFF305830193019BC3F30803039324
:10338400039B002B0DD1EFF314830093009B029356
:10339400029B03F00103002B0CBF01230023DBB2CB
:1033A40000E00123184604B07047000008B5044B40
:1033B4001B68044A12681046984700BF08BD00BF46
:1033C4008C0100209001002000B585B003460091D7
:1033D400ADF80630BDF80630ADF80830009B039315
:1033E40002AB1A46002144F20200FFF7F9FE00BFC7
:1033F40005B05DF804FB10B487B001900091019B07
:10340400009A53E8004F104643E8000191F0000F82
:10341400F7D1059404900391059B184607B05DF815
:10342400044B704710B487B001900091019B009A3F
:1034340053E8004F44EA020043E8000191F0000F12
:10344400F6D1059404900391049B184607B05DF8E7
:10345400044B704710B487B001900091019B009A0F
:1034640053E8004F04EA020043E8000191F0000F22
:10347400F6D1059404900391059B184607B05DF8B6
:10348400044B704710B487B001900091019B009ADF
:1034940053E8004F04EB020043E8000191F0000FF1
:1034A400F6D1059404900391049B184607B05DF887
:1034B400044B704710B487B001900091019B009AAF
:1034C40053E8004FA4EB020043E8000191F0000F21
:1034D400F6D1059404900391049B184607B05DF857
:1034E400044B704700B583B0019001210198FFF7A8
:1034F40099FF0346184603B05DF804FB00B583B09A
:10350400019000210198FFF7A5FF0346184603B078
:103514005DF804FB00B583B001900B468DF80330D1
:10352400019B002B03D10849E820FFF74DFF019BC5
:10353400DA689DF803300199098A01FB03F3134407
:10354400184603B05DF804FB5868000000B583B06A
:1035540001900091019B002B03D10849F520FFF74E
:1035640033FF009B019AD2689B1A019A128AB3FB1B
:10357400F2F3DBB2184603B05DF804FB58680000B0
:1035840000B585B00190019B002B01D10E234CE0C6
:10359400019B1B68002B03D12649FF20FFF714FF72
:1035A400019B5B68002B04D122494FF48070FFF724
:1035B4000BFF019B9B68002B04D11E4940F20110B4
:1035C400FFF702FF019BDB68002B04D119494FF47C
:1035D4008170FFF7F9FE019B1B8A002B04D115496A
:1035E40040F20310FFF7F0FE019B9A68019B5B68B1
:1035F400D31A8DF80F30019B1B68019A52681A6028
:1036040007E0019B1A681368591C11609DF80F208C
:103614001A709DF80F305A1E8DF80F20002BF0D130
:10362400019B1B6800221A710023184605B05DF83F
:1036340004FB00BF5868000000B585B00190019BF1
:10364400002B04D11C494FF49270FFF7BDFE0023F8
:1036540003930020FFF762FE019B1B681A68019B1D
:103664005B689A421FD9019B1B681A68013A1A6069
:103674001B681B7819460198FFF74CFF0390019BC8
:103684009A68019B1B681B68D31A8DF80B30019B49
:103694001B681B799DF80B209A4204D9019B1B6877
:1036A4009DF80B201A710020FFF74CFE039B18466F
:1036B40005B05DF804FB00BF5868000010B584B085
:1036C40001900091019B002B04D1114940F2471055
:1036D400FFF77AFE009B002B04D10D494FF4A47030
:1036E400FFF772FE009B03930020FFF717FE019B78
:1036F4001B681C68621C1A6003990198FFF726FF77
:10370400034623700020FFF71DFE00BF04B010BD68
:103714005868000000B583B00190019B002B03D1D1
:103724000C493120FFF750FE019B9B68002B0CD005
:10373400019B5B69019A1069019A1168019A926868
:103744009847019B00229A6000E000BF03B05DF837
:1037540004FB00BFC06800000EB400B584B0019043
:10376400019B002B03D118494220FFF72DFE019B3A
:103774005B69002B03D114494320FFF725FE019B0D
:103784001B68002B03D110494420FFF71DFE019B49
:103794005B68002B03D10C494520FFF715FE059B00
:1037A400002B0AD00023039306AB039303AB1A4602
:1037B4000599019800F0B8F900E000BF04B05DF885
:1037C40004EB03B0704700BFC068000000B583B0CD
:1037D40001900B468DF803309DF803300A2B03D17A
:1037E4000D210198FFF7F2FF019B1A68019B9B686A
:1037F400581C0199886013449DF803201A70019B9A
:103804009A68019B5B689A4202D30198FFF782FF92
:1038140000BF03B05DF804FB00B587B003900291CC
:103824000192009300230593009B03F00103002BF6
:1038340024D00BE0029B01330293059B01330593D3
:103844009DF8133019460398FFF7C0FF029B1B78BD
:103854008DF813309DF81330002BEBD106E0019B5B
:10386400013B019320210398FFF7B0FF019A059BC8
:103874009A422ED9019B002BF1D12AE0029B002B06
:103884000BD0029802F0F6FA059006E0019B013B8A
:10389400019320210398FFF799FF019A059B9A420F
:1038A4000FD9019B002BF1D10BE0029B0133029352
:1038B400059B013305939DF8133019460398FFF7D0
:1038C40085FF029B1B788DF813309DF81330002B75
:1038D400EBD100BF07B05DF804FB000000B589B070
:1038E4000390029101920093029B07930123069394
:1038F40007E0079A019BB2FBF3F30793069B01339E
:103904000693079A019B9A42F3D2009A069B9A4225
:1039140001D9009B06930B9B03F00103002B22D1DA
:103924000A9B002B1FD00B9B03F00203002B06D035
:10393400009B002B03D130238DF8173002E02023A5
:103944008DF8173008E00A9B013B0A939DF8173065
:1039540019460398FFF73AFF0A9B002B03D0069AF7
:103964000A9B9A42EFD301230793009B012B03D9AF
:10397400009B013B009309E0029A079BB2FBF3F31F
:103984000493049A019B9A4200D205E0079B019A92
:1039940002FB03F30793E8E7029A079BB2FBF3F3F6
:1039A4000493049B079A02FB03F3029AD31A02932B
:1039B400154A049B13441B7819460398FFF706FF26
:1039C400079A019BB2FBF3F30793079B002BE3D108
:1039D4000B9B03F00103002B11D00A9B002B0ED08C
:1039E40006E00A9B013B0A9320210398FFF7EEFEB1
:1039F4000A9B002B03D0069A0A9B9A42F1D300BF7C
:103A040009B05DF804FB00BF8869000000B589B007
:103A14000590049103920293049B002BB8BF5B4270
:103A240006930123079307E0039B069A92FBF3F3A3
:103A34000693079B01330793039B069A9A42F3DA92
:103A4400029A079B9A4201D9029B07930A9B002B77
:103A54000AD0049B002B04DB0B9B03F00403002B14
:103A640002D00A9B013B0A930B9B03F00203002B39
:103A740002D0029B002B16D00B9B03F00103002BFA
:103A840011D10A9B002B0ED006E00A9B013B0A933E
:103A940020210598FFF79AFE0A9B002B03D0079A72
:103AA4000A9B9A42F1D3049B002B07DA049B5B42E6
:103AB40004932D210598FFF789FE08E00B9B03F082
:103AC4000403002B03D02B210598FFF77FFE0B9BEB
:103AD40003F00203002B19D00B9B03F00103002B0E
:103AE40014D1029B002B11D10A9B002B0ED006E0AF
:103AF4000A9B013B0A9330210598FFF767FE0A9B56
:103B0400002B03D0079A0A9B9A42F1D304990B9B8A
:103B140001930A9B0093029B039A0598FFF7DEFE2C
:103B240000BF09B05DF804FB00B58FB005900491A7
:103B34000392059B002B04D1AD4940F25220FFF7BC
:103B440043FC059B5B69002B04D1A9494FF4157014
:103B5400FFF73AFC059B1B68002B04D1A44940F2F3
:103B64005520FFF731FC059B5B68002B04D1A0496D
:103B740040F25620FFF728FC049B002B00F09381B1
:103B8400049B1B788DF83730049B013304939DF814
:103B94003730002B00F07E819DF83730252B40F024
:103BA4006D8100230A9301230C93049B1B788DF8E9
:103BB40037309DF83730302B0DD0302B1BDC2B2BBE
:103BC40011D02D2B17D10A9B43F001030A93049BB8
:103BD4000133049312E00A9B43F002030A93049B0B
:103BE400013304930AE00A9B43F004030A93049B01
:103BF4000133049302E000230C9300BF0C9B002BC1
:103C0400D3D1002309939DF837302A2B0CD1039B81
:103C14001B68191D039A11601B68099A13440993C0
:103C2400049B013304931AE0049B1B788DF837300E
:103C34009DF837302F2B12D99DF83730392B0ED8F9
:103C4400049B01330493099A13469B0013445B00BD
:103C54001A469DF837301344303B0993D3E70023C9
:103C64000B93049B1B788DF837309DF837302E2B3F
:103C74001DD1049B01330493049B1B788DF83730CA
:103C84009DF837302F2B12D99DF83730392B0ED8A9
:103C9400049B013304930B9A13469B0013445B006B
:103CA4001A469DF837301344303B0B93E4E7049BEA
:103CB4001B788DF837309DF837306C2B03D09DF886
:103CC4003730682B07D1049B01330493049B1B7882
:103CD4008DF83730EFE79DF83730252B00F0C4809E
:103CE400252BC0F2C680782B00F3C380582BC0F27A
:103CF400C080583B202B00F2BC8001A252F823F074
:103D0400F93D0000773E0000773E0000773E00005A
:103D1400773E0000773E0000773E0000773E0000CB
:103D2400773E0000773E0000773E0000893D0000AA
:103D3400AB3D0000773E0000773E0000773E000078
:103D4400773E0000AB3D0000773E0000773E000068
:103D5400773E0000773E0000773E0000773E00008B
:103D6400393E0000773E0000773E00001D3E000013
:103D7400773E0000CF3D0000773E0000773E000014
:103D8400F93D0000039B1B68191D039A11601B6811
:103D94000C930C9B8DF81F309DF81F301946059825
:103DA400FFF714FD66E0039B1B68191D039A11605D
:103DB4001B680C930A9B0193099B00930B9B0A229B
:103DC4000C990598FFF722FE54E0039B1B68191D0C
:103DD400039A11601B680C930C990A9B0193099B2D
:103DE40000930B9B0A220598FFF778FD42E000BF81
:103DF40020690000039B1B68191D039A11601B684E
:103E04000C930C990A9B0193099B00930B9B102222
:103E14000598FFF763FD2DE0039B1B68191D039AAA
:103E240011601B6808930A9B099A08990598FFF783
:103E3400F3FC1FE0039B1B68191D039A11601B68A8
:103E44000C9330210598FFF7C1FC78210598FFF702
:103E5400BDFC0C990023019308230093082310222E
:103E64000598FFF73BFD05E025210598FFF7AEFC1B
:103E740000E000BF049B0133049305E09DF8373054
:103E840019460598FFF7A2FC049B1B78002B7FF4CE
:103E940077AE00E000BF059B1B7B002B04D0059888
:103EA400FFF738FC00E000BF0FB05DF804FB00BF73
:103EB40000B583B001900198FFF762FB03461846F2
:103EC40003B05DF804FB00B58BB001900091019B39
:103ED4001B8A043B0793009A079B1344DA1C079B35
:103EE400B2FBF3F38DF81B300198FFF7A5FB0590A7
:103EF400059B002B01D1002338E0059B00221A7199
:103F0400059B01225A71079B9AB2059BDA80059B97
:103F140009939DF81B30013B0493099B019A1A6095
:103F2400002308931DE00198FFF786FB0390039B91
:103F3400002B0ED0059B5B790133DAB2059B5A71D5
:103F4400099B039A1A60039B019A1A60039B0993C5
:103F540004E0059800F00EF8002307E0089B013305
:103F64000893089A049B9A42DDD3059B18460BB02C
:103F74005DF804FB00B58BB00190019B0793079B90
:103F84005B798DF81B30019B08939DF81B30013B36
:103F940005930023099305E0089B1B680893099B7C
:103FA40001330993099A059B9A42F5D3089B1B6830
:103FB4000493019B0893002309930BE0089B1B685F
:103FC400039308990498FFF779FB039B0893099BD3
:103FD400013309939DF81B30099A9A42EED300BF2E
:103FE40000BF0BB05DF804FB00B585B00190019BE8
:103FF4000393039B043301211846FFF743FA00BFE0
:1040040005B05DF804FB00B587B00190019B0593F2
:10401400059B043301211846FFF74CFA034603932A
:1040240003AB0493049B1B78002B02D10198FFF788
:10403400A1FF00BF07B05DF804FB000000B591B01C
:104044000390029101920093039B002B03D14349F7
:10405400B620FFF7B9F9039B0993039B0F93099BC0
:10406400DB881A46099B5B7902FB03F3043B089344
:10407400009A089B9A4203D33849C420FFF7A4F955
:10408400099BDB880793009B1A1D079BB2FBF3F384
:104094000E93009B0433079AB3FBF2F2079901FBDA
:1040A40002F29B1A0D93019B1A68009B1344089A11
:1040B4009A4203D2089A009BD31A01E0019B1B6821
:1040C4000C93019B0C9A1A6005E00F9B1B680F93DD
:1040D4000E9B013B0E930E9B002BF6D100230B93FA
:1040E400079A0D9BD31A0A930A9A0C9B934228BFF2
:1040F40013460A932AE0029A0B9B134406930F9AE1
:104104000D9B1344043305939DF84830002B05D0D0
:104114000A9A0599069801F0C3FE04E00A9A0699E2
:10412400059801F0BDFE00230D930F9B1B680F93B0
:104134000C9A0A9BD31A0C930B9A0A9B13440B9365
:10414400079A0C9B934228BF13460A930C9B002B9F
:10415400D1D100BF00BF11B05DF804FB9869000025
:1041640000B589B00590049103920293039B0793D1
:1041740007AA00230093029B04990598FFF75EFFAA
:10418400079B039A9A4203D00349F620FFF71CF9D0
:1041940000BF09B05DF804FB9869000000B589B060
:1041A4000590049103920293039B079307AA0123AA
:1041B4000093029B04990598FFF740FF079B039A1D
:1041C4009A4204D004494FF48070FFF7FDF800BF11
:1041D40009B05DF804FB00BF9869000082B001904B
:1041E400019B9B6800229A60019B9B6800221A61D4
:1041F400019B9B6800225A61019B9B680022DA6044
:10420400019B9B6800225A60019B9B6800221A60F4
:1042140000BF02B07047000000B585B0019001985E
:1042240000F00EF80390039B002B01D0039B00E0E9
:10423400024B184605B05DF804FB00BF786A000025
:1042440086B00190164B0593164B04931FE0049A15
:10425400059BD31ADB10DA0F13445B10DB00059ABD
:1042640013440393039B1B680293029A019B9A4293
:1042740002D9039B04930AE0029A019B9A4203D257
:10428400039B0833059302E0039B5B6804E0059AF3
:10429400049B9A42DBD30023184606B0704700BF44
:1042A4004C6E0000646F000000B5A1B0059004914D
:1042B400039202930498FFF797FE039B1593029BC6
:1042C40016930023179300238DF86030002319936D
:1042D400229B1A9300231F930FA91F9B0822049863
:1042E400FFF75CFF08231F93119B1293BDF8403026
:1042F400ADF84C30BDF84230ADF84E3000238DF8A7
:1043040051309DF83C3003F00303DBB2012B26D17E
:104314000F9BC3F395231C939DF83C30C3F3C20356
:10432400DBB28DF85030BDF83C30C3F38313DBB2FD
:104334001B931B9B9A0009A91F9B0498FFF72EFF50
:104344001B9B9B001F9A13441F9312AA09A915AB28
:10435400009313461B9A1C9800F0DAFF2FE09DF897
:104364003C3003F00303DBB2022B28D1BDF83E300E
:10437400C3F389139BB21E939DF83C30C3F3C2036D
:10438400DBB28DF850301E9B082B28BF08231D93E9
:1043940007A91F9B1D9A0498FFF700FF1F9A1D9BF6
:1043A40013441F931E9A1D9BD31A1E9315AB12AA76
:1043B40007A81D9901F04EF81E9B002BE3D1049829
:1043C400FFF721FE00BF21B05DF804FB00B583B008
:1043D4000190019B1B781A460C4B9B5C002B05D06B
:1043E400019B04331846FEF76FFC0BE0019B1B781E
:1043F4001A46064B9B5C002B04D1019B0C331846D8
:10440400FDF724FE00BF03B05DF804FB8C00002020
:1044140000B587B00390029113468DF8073000234E
:104424000593039B1B781A46114B9B5C002B09D008
:10443400039B04339DF8072002991846FEF79AFC63
:1044440005900FE0039B1B781A46094B9B5C002BDD
:1044540008D1039B0C339DF8072002991846FDF7F9
:104464006DFE0590059B184607B05DF804FB00BF80
:104474008C00002082B001900091034B01221A703D
:1044840000BF02B0704700BFD801002030B58DB026
:1044940003468DF807301A4B02AC1D460FCD0FC4EE
:1044A40095E80F0084E80F00062302934FF0FF33D2
:1044B40003934FF0FF3304934FF0FF3305934FF012
:1044C400EB7308939DF80730002B01D00D4A00E0F0
:1044D400002202AB19460C48FCF7C4F90B900B9B65
:1044E4000A930A9B002B04D0084A43210A98FEF73A
:1044F40069FE074A9DF80730137000BF0DB030BD48
:10450400D86F00007944000000000020646F0000B0
:10451400D901002000B583B001238DF807309DF840
:1045240007301846FFF7B2FF00BF03B05DF804FB85
:1045340000B589B0039002910192019B8DF81F3060
:10454400124B00221A709DF81F301A460299104827
:10455400FFF75EFF0690069B0593059B002B04D096
:104564000C4A53210598FEF72DFE00BF0A4B1B7819
:10457400002B07D0054B1B78DBB283F00103DBB2C1
:10458400002BF3D100BF09B05DF804FBD801002073
:1045940000000020646F0000D901002000B585B040
:1045A40003900291054B00934023054A0299039816
:1045B400FFF77AFE00BF05B05DF804FB3545000047
:1045C4009801002082B0019000BF02B07047000043
:1045D40000B583B001900548FFF7F8FE0020FFF70F
:1045E40055FF00BF03B05DF804FB00BF00000020CE
:1045F40082B00190019BDB6801225A7100BF02B0B6
:104604007047000000B583B04FF0FF330193FFF70C
:1046140081FF0421084800F095FD0190019B002BC7
:1046240003DA06494820FEF7CFFE0348FFF7E0FF10
:1046340000BF03B05DF804FB9C600000187000002C
:1046440000B583B001900091019B1B681B68009921
:104654000198984700BF03B05DF804FB00B583B030
:104664000190019B1B685B680198984700BF03B0E9
:104674005DF804FB00B583B00190019B1B689B6847
:104684000198984700BF03B05DF804FB82B0019025
:104694000B468DF80330019BDB689DF803201A71EB
:1046A40000BF02B0704782B00190019BDB681B79A8
:1046B400184602B0704782B00190019BDB6801226A
:1046C4005A7100BF02B0704782B00190019BDB6851
:1046D4005B79184602B0704700B585B0019000912F
:1046E400154BFF229A60144B00221A60124B0022D1
:1046F4005A60114B0022C3F818240F4B0022C3F850
:1047040014240D4B002283F820240C48FFF7D0FB1F
:104714000390039B002B01D0039B08E00848FFF79C
:104724005DFD084A084BD31ADB08029300231846A0
:1047340005B05DF804FB00BF44030020886000005E
:10474400907000008860000040600000024A034B43
:10475400D31ADB08184670478860000040600000E8
:1047640000B587B001900B468DF803309DF80330F7
:10477400002B1FD0FFF7EAFF04900023059313E0FA
:10478400059B9B000E4A13440393039B1B881A4604
:10479400019B1B689A4204D1019B059A1A6000236D
:1047A40009E0059B01330593059A049B9A42E7D3DC
:1047B400052300E00023184607B05DF804FB00BFA2
:1047C4000000002000B585B001900B468DF8033041
:1047D4009DF8032001AB11461846FFF7C1FF0346BD
:1047E400002B07D1019BDB00054A13440393039B71
:1047F4001B6800E00023184605B05DF804FB00BF09
:104804004060000084B001900B468DF80330019B9A
:10481400DB00174A134402939DF80330013B032B3A
:104824001CD801A252F823F03D480000454800007E
:104834004D4800005748000002238DF80F3011E066
:1048440004238DF80F300DE0029B1B798DF80F3097
:1048540008E0029B5B798DF80F3003E000238DF8AC
:104864000F3000BF9DF80F30184604B0704700BFEA
:104874004060000084B00190009100238DF80F3057
:10488400019B1B7803F00403DBB2002B24D0019BB3
:104894001B78C3F30103DBB2012B02D0022B0CD033
:1048A40017E0009B1B68019A1288C2F38312D2B2EC
:1048B40013449A1C009B1A600BE0009B1B68019A2E
:1048C4005288C2F3891292B213449A1C009B1A6054
:1048D40000BF01238DF80F309DF80F30184604B047
:1048E4007047000000B58BB00023ADF826303E4879
:1048F400FEF7F8FD3D48FEF7F5FD3D4B5B6804937C
:104904003B4B9B680693049A069B134002339B001F
:10491400374A13440433089304AB19460898FFF745
:10492400A9FF0346002B09D0049A069B13400233C7
:104934009B002F4A134404330893EDE700BF002380
:10494400079311E0049B5A1C0492069A1340079A99
:10495400920001A90A44264902339B000B445B6878
:104964001360079B01330793079B012BEAD99DF83A
:104974000430C3F30103DBB2012B10D0022B1CD192
:10498400BDF80A30ADF82630BDF80630C3F38913FC
:104994009BB203339A08049B1344049313E0BDF8B9
:1049A4000A30ADF82630BDF80430C3F38313DBB20C
:1049B4001A46049B1344049305E00E494FF4BF7058
:1049C400FEF702FD00BF0948FEF798FD0590059B20
:1049D400002B02D0049B064A5360BDF826301846CB
:1049E4000BB05DF804FB00BF5C07002058070020F3
:1049F40044030020A070000000B585B000210748E2
:104A0400FEF7F9FC0390039B0293029B83F31003CC
:104A14000193019B184605B05DF804FB6007002074
:104A240000B589B00390029101920093039B1B0C83
:104A34000793FFF7E1FF0690FFF788FE0246079B06
:104A4400934204D3214940F2A310FEF7BDFC069B18
:104A54001904009B5A1C0A9B1340079A0A431C49D9
:104A640002339B000B445A60009A0A9B13400233A2
:104A74009B00174A134404330593039B03F0070375
:104A8400D9B2059A137861F3C5031370019B03F03F
:104A94000F03D9B2059A138861F389131380029B1B
:104AA400C3F31501059A136861F39F231360059AF4
:104AB4001378012161F301031370059A137823F02D
:104AC4000403137000BF09B05DF804FBA07000007C
:104AD4004403002000B58BB00390029113468DF877
:104AE4000730039B0233089301238DF81F30002005
:104AF400FEF714FC3E4B1A68029B1A603C4B9A6802
:104B04003B4B59683A4B1B68CB1A13440133099346
:104B140014E001213748FEF7B5FCFFF7E3FE0590EA
:104B240005993448FEF7AEFC314B9A68304B59680E
:104B34002F4B1B68CB1A134401330993089A099B22
:104B44009A42E6D89DF81F30002B48D000230493E6
:104B54009DF80730002B17D09DF81030012262F326
:104B640001038DF810309DF8103043F004038DF8E4
:104B74001030039B03F00F03DAB2BDF8103062F378
:104B84008913ADF8103016E09DF81030022262F35C
:104B940001038DF810309DF8103043F004038DF8B4
:104BA4001030039BC3F309039AB2BDF8123062F3C9
:104BB4008F13ADF812300E4B1A680D4B9B681340DF
:104BC40002339B000A4A134404330693049A069B57
:104BD4001A60074B1A68089B1344054A13600020A7
:104BE400FEF7B0FB9DF81F3018460BB05DF804FBD0
:104BF400440300206007002000B58BB005900491A9
:104C0400039202931F4B9B68079306AB012219463C
:104C14000298FFF75FFF0346002B24D0069B023364
:104C240009930023089311E0089B9B00039A1A44FC
:104C3400099B591C099107990B40126811490233C9
:104C44009B000B445A60089B01330893089A029B0B
:104C54009A42E9D3069A079B00931346029A049951
:104C64000598FFF7DDFE074B93F82034002B04D0A2
:104C740000F066F80346002BFAD100BF0BB05DF8D4
:104C840004FB00BF4403002000B583B001900091F1
:104C94000023002200990198FFF7AEFF00BF03B084
:104CA4005DF804FB00B587B0039002910192019B6B
:104CB400059305AA012302990398FFF79DFF00BFFE
:104CC40007B05DF804FB00B587B003900291019230
:104CD4000093019B0493009B059304AA0223029969
:104CE4000398FFF789FF00BF07B05DF804FB00B528
:104CF4008BB00390029101920093019B0593009B5A
:104D040006930C9B07930D9B08930E9B099305AA8E
:104D1400052302990398FFF76FFF00BF0BB05DF8FE
:104D240004FB0000054B5A68044B1B689A420CBFF5
:104D340001230023DBB21846704700BF4403002060
:104D440000B599B0FFF7EEFF0346002B01D0002316
:104D5400B7E19B4B0022C3F81824BFF34F8F00BF69
:104D6400974B5B680493964B9B681093049A109B33
:104D7400134002339B00924A1344043311930023DB
:104D840017930023169300230F9304AB194611982D
:104D9400FFF770FD0346002B19D0894BD3F8183464
:104DA400002B14D1864B1A68049B9A4205D8844B75
:104DB4001B68834A5360002383E1049A109B1340C9
:104DC40002339B007E4A134404331193DDE700232E
:104DD400159311E0049B5A1C0492109A1340159ADF
:104DE400920001A90A44764902339B000B445B6894
:104DF4001360159B01331593159B012BEAD99DF87C
:104E0400043003F00303DBB2022B40F09C80BDF8B6
:104E14000630C3F389139BB20D93BDF80630C3F378
:104E240089139BB2502B28BF50239BB20C930C9B2D
:104E3400C3F309039AB2BDF8063062F38F13ADF8D9
:104E440006300C9B08330B939DF80430C3F3C20364
:104E5400DBB20F930B995B48FFF735F81790179B5C
:104E6400002B00F0D1801798FFF7BEF801A9169B1C
:104E740008221798FFF774F9169B08331693049BBE
:104E8400DA43109B134001339B000A930C9A0A9B4C
:104E94009A4242D90A9B002B08D0049A109B1340D3
:104EA40002339B00464A1344043300E0464B089304
:104EB4000A9B002B02D00A9BDBB201E00C9BDBB205
:104EC4008DF81F300A9B002B01D03F4B00E00023DC
:104ED40006930A9B002B06D00C9BDAB20A9BDBB22A
:104EE400D31ADBB200E000238DF817309DF81F20A1
:104EF400169B08991798FFF733F99DF81F30169AF7
:104F040013441693069B002B16D09DF81720169B6E
:104F140006991798FFF724F90EE0049A109B1340A2
:104F240002339B00264A134404330993169B0C9ABC
:104F340009991798FFF714F90D9B03339A08049BFA
:104F44001344049360E09DF8043003F00303DBB2E0
:104F5400012B59D1BDF80430C3F38313DBB2062B04
:104F640028BF0623DAB2BDF8043062F38913ADF822
:104F74000430BDF80430C3F38313DBB202330E9361
:104F84009DF80430C3F3C203DBB20F930E9B9B0066
:104F940019460C48FEF797FF1790179B002B33D048
:104FA4001798FFF721F801A9169B08221798FFF715
:104FB400D7F8169B08331693002315931BE000BF04
:104FC400440300208860000050030020049B5A1C06
:104FD4000492109A134002339B003C4A1344191D57
:104FE400169B04221798FFF7BBF8169B04331693FD
:104FF400159B01331593BDF80430C3F38313DBB25F
:105004001A46159B9342E1D3179B002B39D02F4BA3
:10501400D3F8103414932D4BD3F81834002B1BD031
:105024001798FEF7F0FF46E000238DF84F301498F0
:10503400FFF74AFB0346002B02D001238DF84F30C3
:105044009DF84F30002B03D017991498FFF7F8FA06
:10505400149BDB681B681493149B002BE4D11798F2
:10506400FEF7D1FF0020FEF759F9184BD3F8183496
:10507400002B02D1049B154A53600020FEF762F90D
:1050840019E0124BD3F81034129306E01298FFF78C
:10509400F1FA129BDB681B681293129B002BF5D16B
:1050A4000B4A0C4BD31ADB081B0443F002030A49D6
:1050B4001846FFF7E9FDFFF735FE034683F00103C9
:1050C400DBB2184619B05DF804FB00BF44030020AE
:1050D40068600000406000001071000000B585B0F9
:1050E4000023039323E0164BD3F8103402930123D7
:1050F4008DF807300FE00298FFF7D5FA03461A46F9
:10510400039B934203D100238DF8073006E0029BF2
:10511400DB681B680293029B002BECD19DF80730DF
:10512400002B01D0039B07E0039B01330393039BF4
:10513400092BD8DD4FF0FF33184605B05DF804FBAA
:105144004403002000B585B001900B468DF8033070
:10515400FFF7C4FF0390039BB3F1FF3F01D1039B0F
:1051640022E0039BDBB219460198FFF78FFA104B3C
:10517400D3F81034002B08D10D4A019BC2F8103427
:10518400019BDB6800221A600DE0094BD3F8103450
:10519400DA68019BDB6812681A60054BD3F8103497
:1051A400DB68019A1A60039B184605B05DF804FB9E
:1051B4004403002000B583B00D4BD3F810340193A1
:1051C4000B4B012283F8202409E00198FFF773FABE
:1051D4000198FFF743FA019BDB681B680193019B6D
:1051E400002BF2D100BF00BF03B05DF804FB00BF89
:1051F4004403002082B00190009100BF02B07047C8
:1052040010B584B003900291039BDB88002B0AD075
:10521400039BDB881A461F4B009313461E4A1F4903
:105224000298FEF799FA039B1B7A052B2ED0039B59
:105234005B7A002B12D0039B9B881A46039B1B7A34
:1052440019461046FFF7DEFA03461A46144B53F884
:1052540022301A4613490298FEF77EFA039B1B6814
:1052640019460298FFF7C6FF039B1B7A1A460E4B9A
:1052740053F82240039B9B8800211846FFF7A2FAAB
:105284000346224609490298FEF766FA00BF04B0B5
:1052940010BD00BF44710000547100008C71000007
:1052A40030000020A47100001C000020A871000040
:1052B40000B585B00390029113468DF80730039B27
:1052C4001B7A052B0FD0039B5B7A002B06D00D4B6A
:1052D4001B681A460C490298FEF73EFA0B490298DD
:1052E400FEF73AFA07E09DF80730002B03D0074990
:1052F4000298FEF731FA0298FEF70CFA00BF05B0E7
:105304005DF804FB30000020A4710000B4710000BB
:1053140030B58BB007900691059204930E9B1B7BCE
:105324008DF827300E9B00221A730E990498FFF70C
:1053340067FF059B062B7FD801A252F823F000BF1C
:10534400615300006B5300007B5300008F53000037
:10535400AD530000D55300000554000007990E9882
:10536400FEF7FAF969E0069B1B681A4607990E983E
:10537400FEF7F2F961E0069B1A68069B04331B688A
:1053840007990E98FEF7E8F957E0069B1A68069B02
:1053940004331968069B08331B6800930B4607996E
:1053A4000E98FEF7D9F948E0069B1968069B04336A
:1053B4001868069B08331B68069A0C32126801921F
:1053C400009303460A4607990E98FEF7C5F934E0A0
:1053D400069B1868069B04331C68069B08331B68ED
:1053E400069A0C32126806991031096802910192EA
:1053F40000932346024607990E98FEF7ADF91CE088
:10540400069B1C68069B04331D68069B08331B68B7
:10541400069A0C32126806991031096806981430FD
:10542400006803900291019200932B46224607994B
:105434000E98FEF791F900E000BF00220E9904983F
:10544400FFF736FF0E9B9DF827201A7300BF0BB0A1
:1054540030BD00BF00B587B0039002910192009364
:10546400029B082B60D8009B1B7B8DF81330009B9C
:1054740000221A7300990198FFF7C2FE00230593D6
:1054840014E0059A029B9A4209D2039A059B13449D
:105494001B781A4626490098FEF75EF903E0254971
:1054A4000098FEF759F9059B01330593059B072BDB
:1054B400E7D921490098FEF74FF90023059326E028
:1054C400059A029B9A421BD2039A059B13441B78AC
:1054D4008DF812309DF812307E2B0AD89DF81230C8
:1054E400184600F060FD0346002B02D09DF81230F0
:1054F40000E02E231A4611490098FEF72DF903E027
:105504000F490098FEF728F9059B01330593059B85
:10551400072BD5D9012200990198FFF7C9FE009BFA
:105524009DF813201A7300E000BF07B05DF804FB78
:10553400B8710000C0710000C4710000C87100009F
:10554400CC71000000B585B00190019B002B0AD0FE
:10555400074B43F001030393019B9B010293039BBD
:105564000298984700E000BF05B05DF804FB00BF57
:10557400D072000000B583B00190019B1B681F2B03
:1055840004D9054940F2CD10FDF71EFF4FF0A043AA
:10559400184603B05DF804FBD071000000B585B077
:1055A400019001AB1846FFF7E5FF0390019B012230
:1055B40002FA03F31946039800F018F800BF05B087
:1055C4005DF804FB00B585B0019001AB1846FFF708
:1055D400D1FF0390019B012202FA03F319460398B9
:1055E40000F00EF800BF05B05DF804FB82B0019036
:1055F4000091019B009AC3F8082500BF02B07047D0
:1056040082B001900091019B009AC3F80C2500BF61
:1056140002B0704700B583B00190019B002B0AD003
:105624004FF47A70FFF78EFF019B013B0193019BBE
:10563400002BF5D100E000BF03B05DF804FB00B51A
:105644008FB003900291009313468DF80730002326
:105654000D93029B09939DF807300A93009B0B93CB
:105664009DF840300C93039B043309A9002218468B
:10567400FCF78CF80D900D9B18460FB05DF804FBF9
:1056840082B001900091034B01221A7000BF02B056
:10569400704700BF6807002000B585B01C20FFF7E5
:1056A40091FF0A20FFF74EFF304B00221A70304B57
:1056B40080221A702E4B00225A70022200212D489B
:1056C40000F020FC022300932A4B022228492A4896
:1056D400FFF7B5FF0390039B002B06D0274A2B212D
:1056E4000398FDF76FFD00E020BF204B1B78DBB271
:1056F40083F00103DBB2002BF6D10A20FFF722FF6F
:105704001C20FFF74BFF1E4A1E4BD31ADB081B0459
:1057140043F00303174A52781B491846FFF7C2FAAD
:10572400144B5B78EA2B0BD1154A164BD31ADB08C2
:105734001B0443F0030315491846FFF7A5FA0AE0D2
:105744000F4A104BD31ADB081B0443F00103104922
:105754001846FFF799FAFFF7F3FA0346002BFAD13C
:1057640000BF00BF05B05DF804FB00BF6807002060
:105774006C07002070070020BC7200002C7200002F
:1057840068600000406000005C72000070720000FD
:105794008872000000B587B00120FAF779FF4FF452
:1057A40080410020FEF798FF0590059B002B04D054
:1057B400224A3F210598FDF705FDFEF723FF1C2330
:1057C4008DF803301F238DF802301E238DF801302D
:1057D4001D238DF8003006238DF80430FF238DF847
:1057E400053000238DF80D3003238DF80C304FF075
:1057F4000053029369460023114A1248FAF78CFFBA
:105804000490049B002B04D00C4A4D210498FDF70E
:10581400D9FC0D4A0D4BD31ADB081B0443F00303D8
:105824000B491846FFF730FAFFF736FF0020FAF766
:10583400E1FE4FF47A70FFF7EDFEF5E72C720000FD
:1058440085560000BC7200006860000040600000E3
:10585400A0720000BFF34F8F00BF064BDB6803F458
:10586400E0620449044B1343CB60BFF34F8F00BF86
:1058740000BFFDE700ED00E00400FA05024B034A17
:105884001A6000BF704700BF540000200090D0038E
:1058940008B500F069F90346002B06D0A04B1B683D
:1058A4001B0AA04A03F01F03136000F089F90346A2
:1058B400002B02D09C4B9D4A1A6000F09DF90346D0
:1058C400002B06D09A4B1B685B0B9A4A03F0070324
:1058D400136000F0BDF90346002B05D0964BDB683E
:1058E400954A23F08073D36000F0CEF90346002B71
:1058F4000ED04FF080430022C3F80C214FF08043B8
:105904000022C3F810214FF080430022C3F8382549
:1059140000F0E6F90346002B02D0884B03221A60FC
:1059240000F0FAF90346002B0BD0854B05221A60D0
:10593400844B01221A60844B00221A60834B3F225D
:105944001A6000F005FA0346002B76D04FF080531E
:105954007F4AD3F80434C2F820354FF080537C4A90
:10596400D3F80834C2F824354FF08053784AD3F87A
:105974000C34C2F828354FF08053754AD3F81034EC
:10598400C2F82C354FF08053714AD3F81434C2F85E
:1059940030354FF080536E4AD3F81834C2F834359A
:1059A4004FF080536A4AD3F81C34C2F840354FF0A4
:1059B4008053674AD3F82034C2F844354FF08053FB
:1059C400634AD3F82434C2F848354FF08053604A10
:1059D400D3F82834C2F84C354FF080535C4AD3F8DE
:1059E4002C34C2F850354FF08053594AD3F8303430
:1059F400C2F854354FF08053554AD3F83434C2F8C2
:105A040060354FF08053524AD3F83834C2F86435C5
:105A14004FF080534E4AD3F83C34C2F868354FF007
:105A240080534B4AD3F84034C2F86C354FF080535E
:105A3400474AD3F84434C2F8703500F0A5F9034658
:105A4400002B05D0434B1B68434A03F04F031360FC
:105A540000F0C6F90346002B0DD04FF08043D3F875
:105A6400003403F00103002B05D04FF080436FF0A6
:105A74000102C3F8002400F0DFF90346002B05D02F
:105A8400364B1B68354A43F480631360344BD3F8B8
:105A94008830334A43F47003C2F88830BFF34F8F21
:105AA40000BFBFF36F8F00BF4FF01023D3F8003255
:105AB400002B05DB4FF01023D3F80432002B2BDA34
:105AC400284B0122C3F8042500BF264BD3F8003429
:105AD400002BFAD04FF010231522C3F8002200BF88
