:10000000500C0020E90A0000D10A0000D30A0000C9
:10001000D50A0000D70A0000D90A0000000000003D
:10002000000000000000000000000000DB0A0000EB
:10003000DD0A000000000000DF0A0000E10A000005
:10004000E30A0000E30A0000E30A0000A90C000034
:10005000E30A0000E30A0000E30A0000E30A0000EC
:10006000E30A0000E30A0000E30A0000E30A0000DC
:10007000E30A0000E30A0000E30A0000E30A0000CC
:10008000E30A0000210D0000E30A0000E30A00007B
:10009000E30A0000E30A0000E30A0000E30A0000AC
:1000A000E30A0000E30A0000E30A0000E30A00009C
:1000B000E30A0000E30A0000000000000000000066
:1000C000E30A0000E30A0000E30A0000E30A00007C
:1000D000E30A0000E30A0000E30A00000000000059
:1000E0000000000000000000000000000000000010
:1000F0000000000000000000000000000000000000
:1001000000000000000000000000000000000000EF
:1001100000000000000000000000000000000000DF
:1001200000000000000000000000000000000000CF
:1001300000000000000000000000000000000000BF
:1001400000000000000000000000000000000000AF
:10015000000000000000000000000000000000009F
:10016000000000000000000000000000000000008F
:10017000000000000000000000000000000000007F
:10018000000000000000000000000000000000006F
:10019000000000000000000000000000000000005F
:1001A000000000000000000000000000000000004F
:1001B000000000000000000000000000000000003F
:1001C000000000000000000000000000000000002F
:1001D000000000000000000000000000000000001F
:1001E000000000000000000000000000000000000F
:1001F00000000000000000000000000000000000FF
:10020000BFF34F8F00BF064BDB6803F4E062044985
:10021000044B1343CB60BFF34F8F00BF00BFFDE71C
:1002200000ED00E00400FA0582B01D4B1B68B3F13D
:10023000FF3F0AD11B4B1B68DBB201931A4B1B68B3
:100240001B0903F00F03009305E0154B1B68019396
:10025000164B1B680093019B062B1DD1009B033B93
:10026000042B17D801A252F823F000BF810200002E
:1002700085020000890200008D020000910200004A
:1002800001230AE0012308E0012306E0012304E042
:10029000012302E0012300E00023184602B070476A
:1002A00030010010E00F00F0E80F00F03401001002
:1002B00082B0174B1B68DBB20193164B1B681B09FE
:1002C00003F00F030093019B062B1DD1009B033B02
:1002D000042B17D801A252F823F000BFF10200004E
:1002E000F5020000F9020000FD0200000103000019
:1002F00001230AE0002308E0002306E0002304E0D5
:10030000002302E0002300E00023184602B07047FB
:10031000E00F00F0E80F00F082B01D4B1B68B3F156
:10032000FF3F0AD11B4B1B68DBB201931A4B1B68C2
:100330001B0903F00F03009305E0154B1B680193A5
:10034000164B1B680093019B062B1DD1009B033BA2
:10035000042B17D801A252F823F000BF710300004C
:1003600075030000790300007D0300008103000095
:1003700001230AE0012308E0012306E0012304E051
:10038000012302E0012300E00023184602B0704779
:1003900030010010E00F00F0E80F00F03401001011
:1003A00082B0174B1B68DBB20193164B1B681B090D
:1003B00003F00F030093019B062B1DD1009B033B11
:1003C000042B17D801A252F823F000BFE10300006C
:1003D000E5030000E9030000ED030000F103000065
:1003E00001230AE0002308E0002306E0002304E0E4
:1003F000002302E0002300E00023184602B070470B
:10040000E00F00F0E80F00F082B01D4B1B68B3F165
:10041000FF3F0AD11B4B1B68DBB201931A4B1B68D1
:100420001B0903F00F03009305E0154B1B680193B4
:10043000164B1B680093019B062B1DD1009B033BB1
:10044000042B17D801A252F823F000BF610400006A
:1004500065040000690400006D04000071040000E0
:1004600001230AE0012308E0012306E0012304E060
:10047000012302E0012300E00023184602B0704788
:1004800030010010E00F00F0E80F00F03401001020
:1004900082B0174B1B68DBB20193164B1B681B091C
:1004A00003F00F030093019B062B1DD1009B033B20
:1004B000042B17D801A252F823F000BFD10400008A
:1004C000D5040000D9040000DD040000E1040000B0
:1004D00001230AE0002308E0002306E0002304E0F3
:1004E000002302E0002300E00023184602B070471A
:1004F000E00F00F0E80F00F082B0174B1B68DBB292
:100500000193164B1B681B0903F00F030093019B1B
:10051000062B1DD1009B033B042B17D801A252F8D8
:1005200023F000BF390500003D0500004105000033
:10053000450500004905000001230AE0002308E00A
:10054000002306E0002304E0002302E0002300E093
:100550000023184602B07047E00F00F0E80F00F0EB
:1005600082B01D4B1B68B3F1FF3F0AD11B4B1B68C8
:10057000DBB201931A4B1B681B0903F00F030093B6
:1005800005E0154B1B680193164B1B680093019BFC
:10059000062B1DD1009B033B042B17D801A252F858
:1005A00023F000BFB9050000BD050000C105000033
:1005B000C5050000C905000000230AE0002308E08B
:1005C000012306E0012304E0012302E0012300E00F
:1005D0000023184602B0704730010010E00F00F011
:1005E000E80F00F03401001082B01D4B1B68B3F11E
:1005F000FF3F0AD11B4B1B68DBB201931A4B1B68F0
:100600001B0903F00F03009305E0154B1B680193D2
:10061000164B1B680093019B062B1DD1009B033BCF
:10062000042B17D801A252F823F000BF41060000A6
:1006300045060000490600004D0600005106000076
:1006400001230AE0012308E0012306E0012304E07E
:10065000012302E0012300E00023184602B07047A6
:1006600030010010E00F00F0E80F00F0340100103E
:1006700082B01D4B1B68B3F1FF3F0AD11B4B1B68B7
:10068000DBB201931A4B1B681B0903F00F030093A5
:1006900005E0154B1B680193164B1B680093019BEB
:1006A000062B1DD1009B033B042B17D801A252F847
:1006B00023F000BFC9060000CD060000D1060000EF
:1006C000D5060000D906000001230AE0012308E056
:1006D000012306E0012304E0012302E0012300E0FE
:1006E0000023184602B0704730010010E00F00F000
:1006F000E80F00F03401001082B0154B1B68019325
:10070000144B1B680093019B062B1DD1009B033BE0
:10071000042B17D801A252F823F000BF31070000C4
:1007200035070000390700003D07000041070000C1
:1007300000230AE0002308E0002306E0012304E090
:10074000012302E0012300E00023184602B07047B5
:10075000300100103401001082B0154B1B6801936A
:10076000144B1B680093019B062B1DD1009B033B80
:10077000042B17D801A252F823F000BF9107000004
:1007800095070000990700009D070000A1070000E1
:1007900000230AE0002308E0002306E0002304E031
:1007A000012302E0012300E00023184602B0704755
:1007B000300100103401001008B5FFF7CDFF0346EB
:1007C000002B07D04FF010234FF08042D3F80832AF
:1007D000C2F8583500BF08BD00BF044BD3F8003441
:1007E000002BFAD000BF00BF704700BF00E00140FF
:1007F00000B583B00190054A019BC2F80435FFF7AC
:10080000EBFF00BF03B05DF804FB00BF00E0014058
:10081000024B034A1A6000BF704700BF000000206F
:100820000090D00308B5FFF7FFFC0346002B06D06D
:10083000964B1B681B0A964A03F01F031360FFF7D1
:1008400037FD0346002B02D0924B934A1A60FFF704
:1008500063FD0346002B06D0904B1B685B0B904A50
:1008600003F007031360FFF79BFD0346002B05D041
:100870008C4BDB688B4A23F08073D360FFF7C4FD99
:100880000346002B0ED04FF080430022C3F80C210A
:100890004FF080430022C3F810214FF08043002224
:1008A000C3F83825FFF7F4FD0346002B02D07E4B3A
:1008B00003221A60FFF720FE0346002B0BD07B4B70
:1008C00005221A607A4B01221A607A4B00221A60C4
:1008D000794B3F221A60FFF743FE0346002B76D088
:1008E0004FF08053754AD3F80434C2F820354FF0E6
:1008F0008053724AD3F80834C2F824354FF080533D
:100900006E4AD3F80C34C2F828354FF080536B4A46
:10091000D3F81034C2F82C354FF08053674AD3F81F
:100920001434C2F830354FF08053644AD3F8183489
:10093000C2F834354FF08053604AD3F81C34C2F803
:1009400040354FF080535D4AD3F82034C2F8443527
:100950004FF08053594AD3F82434C2F848354FF049
:100960008053564AD3F82834C2F84C354FF08053A0
:10097000524AD3F82C34C2F850354FF080534F4AC6
:10098000D3F83034C2F854354FF080534B4AD3F883
:100990003434C2F860354FF08053484AD3F83834C5
:1009A000C2F864354FF08053444AD3F83C34C2F85F
:1009B00068354FF08053414AD3F84034C2F86C3563
:1009C0004FF080533D4AD3F84434C2F87035FFF7F6
:1009D0000BFE0346002B05D0394B1B68394A03F048
:1009E0004F031360FFF744FE0346002B0DD04FF07A
:1009F0008043D3F8003403F00103002B05D04FF0FF
:100A000080436FF00102C3F80024FFF775FE034630
:100A1000002B05D02C4B1B682B4A43F480631360DA
:100A20002A4BD3F88830294A43F47003C2F888303F
:100A3000BFF34F8F00BFBFF36F8F00BFFFF7BCFE48
:100A40004FF01023D3F80032002B05DB4FF01023BA
:100A5000D3F80432002B15DA0120FFF7C9FE4FF05E
:100A600010231522C3F80022FFF7B6FE4FF0102323
:100A70001522C3F80422FFF7AFFE0020FFF7B8FEEF
:100A8000FFF7BEFBFFF7C4FE00BF08BD2403001044
:100A90004035014074C007400DF0ADBA440200106B
:100AA0003C050040F0ED00E0A0050040105600407D
:100AB00088560040185600401456004000C00040C0
:100AC00058020010E40E00403C17004000ED00E02A
:100AD000FEE7FEE7FEE7FEE7FEE7FEE7FEE7FEE7EE
:100AE000FEE7FEE700F002B8FFF7FCBF0F484FF04B
:100AF0000701884385460E4880470E48016841F447
:100B000070010160BFF34F8FBFF36F8F00F01CB80F
:100B100009480A490A4A884207D0521A05D0037880
:100B200001300B700131013AF9D17047500C0020AF
:100B30002508000088ED00E03C20000000000020B7
:100B400000000020000000005FF800F0510C0020C1
:100B500084B001900B46ADF80230BDF80230019A26
:100B6000134400221A60BDF80230019A13441B6836
:100B70000393039B00BF04B0704782B001900B4603
:100B8000ADF80230BDF80230019A13441B68002B07
:100B900014BF01230023DBB2184602B0704782B0B5
:100BA00001904FF0A043184602B0704700B585B0E1
:100BB000019001AB1846FFF7F2FF0390019B012261
:100BC00002FA03F31946039800F018F800BF05B0C5
:100BD0005DF804FB00B585B0019001AB1846FFF746
:100BE000DEFF0390019B012202FA03F319460398EA
:100BF00000F00EF800BF05B05DF804FB82B0019074
:100C00000091019B009AC3F8082500BF02B070470D
:100C100082B001900091019B009AC3F80C2500BF9F
:100C200002B0704700B583B00190019BDB7FFF2BC2
:100C30000ED0019B9B7F002B05D0019BDB7F1846CC
:100C4000FFF7C8FF04E0019BDB7F1846FFF7AEFF0C
:100C5000019B00225A77019B00221A72019B1B689C
:100C6000019A02F10800019A52681146984700BFA4
:100C700003B05DF804FB00B583B0019000914FF420
:100C80008C710198FFF779FF0346002B07D04FF4D2
:100C90008C710198FFF75CFF0098FFF7C3FF00BF5E
:100CA00003B05DF804FB000008B503490348FFF7F3
:100CB000E2FF00BF08BD00BF580000200030004028
:100CC00072B600BF034B1B680133024A136000BFBA
:100CD000704700BF7C000020064B1B68013B054AA3
:100CE0001360044B1B68002B01D162B600BF00BF2C
:100CF000704700BF7C00002000B583B00190FFF773
:100D0000DFFF00BF03B05DF804FB00B583B003460E
:100D10008DF80730FFF7E0FF00BF03B05DF804FB7C
:100D200008B5044B1B68044A12681046984700BF78
:100D300008BD00BF800000208400002010B487B0F0
:100D400001900091019B009A53E8004F04EB0200D0
:100D500043E8000191F0000FF6D10594049003914F
:100D6000049B184607B05DF8044B704710B487B079
:100D700001900091019B009A53E8004FA4EB020000
:100D800043E8000191F0000FF6D10594049003911F
:100D9000049B184607B05DF8044B704782B0019081
:100DA0000091009B019AD2689B1A019A128AB3FBA8
:100DB000F2F3DBB2184602B0704710B584B0019070
:100DC0000091009B03930020FFF796FF019B1B6897
:100DD0001C68621C1A6003990198FFF7DFFF034645
:100DE00023700020FFF791FF00BF04B010BD00B5D5
:100DF00083B00190019B9B68002B0CD0019B5B6929
:100E0000019A1069019A1168019A92689847019BAA
:100E100000229A6000E000BF03B05DF804FB0EB44E
:100E200000B584B00190059B002B0AD000230393EA
:100E300006AB039303AB1A460599019800F0B4F989
:100E400000E000BF04B05DF804EB03B0704700B5EC
:100E500083B001900B468DF803309DF803300A2BC8
:100E600003D10D210198FFF7F2FF019B1A68019B46
:100E70009B68581C0199886013449DF803201A70E0
:100E8000019B9A68019B5B689A4202D30198FFF725
:100E9000AEFF00BF03B05DF804FB00B587B0039060
:100EA00002910192009300230593009B03F001033C
:100EB000002B24D00BE0029B01330293059B0133EE
:100EC00005939DF8133019460398FFF7C0FF029B66
:100ED0001B788DF813309DF81330002BEBD106E012
:100EE000019B013B019320210398FFF7B0FF019A7A
:100EF000059B9A422ED9019B002BF1D12AE0029B3F
:100F0000002B0BD0029800F0C6FF059006E0019B75
:100F1000013B019320210398FFF799FF019A059B5C
:100F20009A420FD9019B002BF1D10BE0029B0133B8
:100F30000293059B013305939DF8133019460398DE
:100F4000FFF785FF029B1B788DF813309DF8133057
:100F5000002BEBD100BF07B05DF804FB00B589B0F2
:100F60000390029101920093029B07930123069341
:100F700007E0079A019BB2FBF3F30793069B01334B
:100F80000693079A019B9A42F3D2009A069B9A42D3
:100F900001D9009B06930B9B03F00103002B22D188
:100FA0000A9B002B1FD00B9B03F00203002B06D0E3
:100FB000009B002B03D130238DF8173002E0202353
:100FC0008DF8173008E00A9B013B0A939DF8173013
:100FD00019460398FFF73BFF0A9B002B03D0069AA4
:100FE0000A9B9A42EFD301230793009B012B03D95D
:100FF000009B013B009309E0029A079BB2FBF3F3CD
:101000000493049A019B9A4200D205E0079B019A3F
:1010100002FB03F30793E8E7029A079BB2FBF3F3A3
:101020000493049B079A02FB03F3029AD31A0293D8
:10103000154A049B13441B7819460398FFF707FFD2
:10104000079A019BB2FBF3F30793079B002BE3D1B5
:101050000B9B03F00103002B11D00A9B002B0ED039
:1010600006E00A9B013B0A9320210398FFF7EFFE5D
:101070000A9B002B03D0069A0A9B9A42F1D300BF29
:1010800009B05DF804FB00BF5420000000B589B032
:101090000590049103920293049B002BB8BF5B421E
:1010A00006930123079307E0039B069A92FBF3F351
:1010B0000693079B01330793039B069A9A42F3DA40
:1010C000029A079B9A4201D9029B07930A9B002B25
:1010D0000AD0049B002B04DB0B9B03F00403002BC2
:1010E00002D00A9B013B0A930B9B03F00203002BE7
:1010F00002D0029B002B16D00B9B03F00103002BA8
:1011000011D10A9B002B0ED006E00A9B013B0A93EB
:1011100020210598FFF79BFE0A9B002B03D0079A1E
:101120000A9B9A42F1D3049B002B07DA049B5B4293
:1011300004932D210598FFF78AFE08E00B9B03F02E
:101140000403002B03D02B210598FFF780FE0B9B97
:1011500003F00203002B19D00B9B03F00103002BBB
:1011600014D1029B002B11D10A9B002B0ED006E05C
:101170000A9B013B0A9330210598FFF768FE0A9B02
:10118000002B03D0079A0A9B9A42F1D304990B9B38
:1011900001930A9B0093029B039A0598FFF7DEFEDA
:1011A00000BF09B05DF804FB00B58FB00590049155
:1011B0000392049B002B00F09181049B1B788DF817
:1011C0003730049B013304939DF83730002B00F037
:1011D0007C819DF83730252B40F06B8100230A93EA
:1011E00001230C93049B1B788DF837309DF8373022
:1011F000302B0DD0302B1BDC2B2B11D02D2B17D1EE
:101200000A9B43F001030A93049B0133049312E009
:101210000A9B43F002030A93049B013304930AE000
:101220000A9B43F004030A93049B0133049302E0F6
:1012300000230C9300BF0C9B002BD3D100230993F8
:101240009DF837302A2B0CD1039B1B68191D039A7C
:1012500011601B68099A13440993049B013304939A
:101260001AE0049B1B788DF837309DF837302F2B10
:1012700012D99DF83730392B0ED8049B01330493D3
:10128000099A13469B0013445B001A469DF83730B9
:101290001344303B0993D3E700230B93049B1B7843
:1012A0008DF837309DF837302E2B1DD1049B01333C
:1012B0000493049B1B788DF837309DF837302F2B23
:1012C00012D99DF83730392B0ED8049B0133049383
:1012D0000B9A13469B0013445B001A469DF8373067
:1012E0001344303B0B93E4E7049B1B788DF83730B5
:1012F0009DF837306C2B03D09DF83730682B07D121
:10130000049B01330493049B1B788DF83730EFE77F
:101310009DF83730252B00F0C280252BC0F2C48009
:10132000782B00F3C180582BC0F2BE80583B202B95
:1013300000F2BA8001A252F823F000BF2B14000083
:10134000A9140000A9140000A9140000A9140000A9
:10135000A9140000A9140000A9140000A914000099
:10136000A9140000A9140000C1130000E313000039
:10137000A9140000A9140000A9140000A914000079
:10138000E3130000A9140000A9140000A914000030
:10139000A9140000A9140000A91400006B14000097
:1013A000A9140000A91400004F140000A9140000A3
:1013B00007140000A9140000A91400002B14000059
:1013C000039B1B68191D039A11601B680C930C9BEF
:1013D0008DF81F309DF81F3019460598FFF737FD2F
:1013E00063E0039B1B68191D039A11601B680C9333
:1013F0000A9B0193099B00930B9B0A220C99059869
:10140000FFF744FE51E0039B1B68191D039A11600E
:101410001B680C930C990A9B0193099B00930B9BEF
:101420000A220598FFF79AFD3FE0039B1B68191DF0
:10143000039A11601B680C930C990A9B0193099BFA
:1014400000930B9B10220598FFF788FD2DE0039B6E
:101450001B68191D039A11601B6808930A9B099A5F
:1014600008990598FFF719FD1FE0039B1B68191DDC
:10147000039A11601B680C9330210598FFF7E7FC75
:1014800078210598FFF7E3FC0C99002301930823CA
:101490000093082310220598FFF760FD05E0252141
:1014A0000598FFF7D4FC00E000BF049B01330493D0
:1014B00005E09DF8373019460598FFF7C8FC049BF6
:1014C0001B78002B7FF479AE00E000BF059B1B7BEF
:1014D000002B04D00598FFF78AFC00E000BF0FB096
:1014E0005DF804FB00B58BB00190019B0793079B4F
:1014F0005B798DF81B30019B08939DF81B30013BF5
:1015000005930023099305E0089B1B680893099B3A
:1015100001330993099A059B9A42F5D3089B1B68EE
:101520000493019B0893002309930BE0089B1B681D
:10153000039308990498FFF740FC039B0893099BC9
:10154000013309939DF81B30099A9A42EED300BFEC
:1015500000BF0BB05DF804FB00B585B00190019BA6
:101560000393039B043301211846FFF7E7FB00BFF9
:1015700005B05DF804FB00B587B00190019B0593B1
:10158000059B043301211846FFF7F0FB0346039344
:1015900003AB0493049B1B78002B02D10198FFF747
:1015A000A1FF00BF07B05DF804FB00B591B0039048
:1015B000029101920093039B0993039B0F93099B54
:1015C000DB881A46099B5B7902FB03F3043B089313
:1015D000099BDB880793009B1A1D079BB2FBF3F363
:1015E0000E93009B0433079AB3FBF2F2079901FBB9
:1015F00002F29B1A0D93019B1A68009B1344089AF0
:101600009A4203D2089A009BD31A01E0019B1B68FF
:101610000C93019B0C9A1A6005E00F9B1B680F93BB
:101620000E9B013B0E930E9B002BF6D100230B93D8
:10163000079A0D9BD31A0A930A9A0C9B934228BFD0
:1016400013460A932AE0029A0B9B134406930F9ABF
:101650000D9B1344043305939DF84830002B05D0AF
:101660000A9A0599069800F02DFC04E00A9A06995A
:10167000059800F027FC00230D930F9B1B680F9328
:101680000C9A0A9BD31A0C930B9A0A9B13440B9344
:10169000079A0C9B934228BF13460A930C9B002B7E
:1016A000D1D100BF00BF11B05DF804FB00B589B017
:1016B0000590049103920293039B079307AA0123C9
:1016C0000093029B04990598FFF76FFF00BF09B0D4
:1016D0005DF804FB00B585B00190019B002B0AD09A
:1016E000074B43F001030393019B9B010293039B70
:1016F0000298984700E000BF05B05DF804FB00BF0A
:101700008020000000B583B00190019B002B0AD01F
:101710004FF47A70FFF7DEFF019B013B0193019BC1
:10172000002BF5D100E000BF03B05DF804FB000022
:1017300000B589B0039002910192019B002B33D038
:101740000023079303230693029A079B1344019AED
:101750001946002000F072FB0590079A059B134480
:101760000793019A059BD31A0193059B002B13D174
:101770000F4B1B7883F00103DBB2002B13D1012048
:10178000FFF7C0FF069B013B0693069B002B03D18E
:10179000074B00221A7007E0054B01221A70019BCB
:1017A000002BD1D100E000BF00BF09B05DF804FB01
:1017B0008C00002000B585B003900291054B00938A
:1017C0004023054A0299039800F012F800BF05B0C3
:1017D0005DF804FB311700009000002082B00190FA
:1017E00000BF02B0704782B0019000BF02B07047E6
:1017F00000B5A1B005900491039202930498FFF7FD
:10180000ABFE039B1593029B1693002317930023B3
:101810008DF8603000231993229B1A9300231F93A5
:101820000FA91F9B08220498FFF740FF08231F936E
:10183000119B1293BDF84030ADF84C30BDF84230EA
:10184000ADF84E3000238DF851309DF83C3003F058
:101850000303DBB2012B26D10F9BC3F395231C930B
:101860009DF83C30C3F3C203DBB28DF85030BDF8B5
:101870003C30C3F38313DBB21B931B9B9A0009A973
:101880001F9B0498FFF712FF1B9B9B001F9A13449A
:101890001F9312AA09A915AB009313461B9A1C9813
:1018A00000F05AF92FE09DF83C3003F00303DBB25F
:1018B000022B28D1BDF83E30C3F389139BB21E938F
:1018C0009DF83C30C3F3C203DBB28DF850301E9B51
:1018D000082B28BF08231D9307A91F9B1D9A049856
:1018E000FFF7E4FE1F9A1D9B13441F931E9A1D9B36
:1018F000D31A1E9315AB12AA07A81D9900F0CEF9B2
:101900001E9B002BE3D10498FFF735FE00BF21B0EA
:101910005DF804FB024A034BD31ADB0818467047F4
:1019200018200000F81F000000B587B001900B469A
:101930008DF803309DF80330002B1FD0FFF7EAFF2E
:1019400004900023059313E0059B9B000E4A13446B
:101950000393039B1B881A46019B1B689A4204D180
:10196000019B059A1A60002309E0059B013305934A
:10197000059A049B9A42E7D3052300E0002318460A
:1019800007B05DF804FB00BF0000002000B585B083
:1019900001900B468DF803309DF8032001AB1146F2
:1019A0001846FFF7C1FF0346002B07D1019BDB0060
:1019B000054A13440393039B1B6800E00023184669
:1019C00005B05DF804FB00BFF81F000084B0019073
:1019D0000B468DF80330019BDB00174A134402933A
:1019E0009DF80330013B032B1CD801A252F823F0D1
:1019F000011A0000091A0000111A00001B1A000049
:101A000002238DF80F3011E004238DF80F300DE024
:101A1000029B1B798DF80F3008E0029B5B798DF8F3
:101A20000F3003E000238DF80F3000BF9DF80F301A
:101A3000184604B0704700BFF81F000082B0019044
:101A4000009100BF02B0704710B584B003900291BE
:101A5000039BDB88002B0AD0039BDB881A461F4BB5
:101A6000009313461E4A1F490298FFF7D8F9039BBB
:101A70001B7A052B2ED0039B5B7A002B12D0039B85
:101A80009B881A46039B1B7A19461046FFF79EFF58
:101A900003461A46144B53F822301A46134902984B
:101AA000FFF7BDF9039B1B6819460298FFF7C6FFB5
:101AB000039B1B7A1A460E4B53F82240039B9B88CC
:101AC00000211846FFF762FF0346224609490298A3
:101AD000FFF7A5F900BF04B010BD00BFD020000083
:101AE000E02000001821000020000020302100002C
:101AF0000C0000203421000000B585B00390029155
:101B000013468DF80730039B1B7A052B0FD0039BE0
:101B10005B7A002B06D00D4B1B681A460C490298C5
:101B2000FFF77DF90B490298FFF779F907E09DF877
:101B30000730002B03D007490298FFF770F902988D
:101B4000FFF755F900BF05B05DF804FB2000002049
:101B5000302100004021000030B58BB00790069185
:101B6000059204930E9B1B7B8DF827300E9B002261
:101B70001A730E990498FFF767FF059B062B7FD811
:101B800001A252F823F000BFA51B0000AF1B00000C
:101B9000BF1B0000D31B0000F11B0000191C00003C
:101BA000491C000007990E98FFF739F969E0069B78
:101BB0001B681A4607990E98FFF731F961E0069BFA
:101BC0001A68069B04331B6807990E98FFF727F9DC
:101BD00057E0069B1A68069B04331968069B083376
:101BE0001B6800930B4607990E98FFF718F948E019
:101BF000069B1968069B04331868069B08331B680C
:101C0000069A0C3212680192009303460A4607991D
:101C10000E98FFF704F934E0069B1868069B04331E
:101C20001C68069B08331B68069A0C3212680699DA
:101C300010310968029101920093234602460799E8
:101C40000E98FFF7ECF81CE0069B1C68069B04331B
:101C50001D68069B08331B68069A0C3212680699A9
:101C600010310968069814300068039002910192BF
:101C700000932B46224607990E98FFF7D0F800E014
:101C800000BF00220E990498FFF736FF0E9B9DF8C7
:101C900027201A7300BF0BB030BD00BF00B587B05E
:101CA0000390029101920093029B082B60D8009B45
:101CB0001B7B8DF81330009B00221A73009901984A
:101CC000FFF7C2FE0023059314E0059A029B9A4297
:101CD00009D2039A059B13441B781A46264900989B
:101CE000FFF79DF803E025490098FFF798F8059B5A
:101CF00001330593059B072BE7D921490098FFF78E
:101D00008EF80023059326E0059A029B9A421BD287
:101D1000039A059B13441B788DF812309DF81230FE
:101D20007E2B0AD89DF81230184600F01AF90346A7
:101D3000002B02D09DF8123000E02E231A461149E4
:101D40000098FFF76CF803E00F490098FFF767F879
:101D5000059B01330593059B072BD5D901220099DB
:101D60000198FFF7C9FE009B9DF813201A7300E04D
:101D700000BF07B05DF804FB442100004C210000C7
:101D80005021000054210000582100000146C06885
:101D90000A6982426FEA000010449CBF89680844C7
:101DA00070472DE9F0411546884604464068D4E95D
:101DB000021630448F1BBA42414605D200F082F829
:101DC0003544BFF35F8F0BE03A4600F07BF808EB39
:101DD0000701ED1B60682A4600F074F8BFF35F8FBF
:101DE000E560BDE8F0812DE9F843144688460546D4
:101DF000C7684FF000092869F943B8420844A96848
:101E000098BF0844CE1BB04238BF06466868A64259
:101E1000384428BF26464146324600F053F8A868A9
:101E2000F1190F1A18BF0F46BFF35F8FEF60A41BA5
:101E3000B044B144DFD14846BDE8F88370B50D46E3
:101E400000EB400040F2A011C2F2000101EBC00023
:101E500000F11806C06A022817D01446012807D0DE
:101E600020B93046FFF792FFA04207D200240AE0D3
:101E70003046FFF78BFFA04238BF04463046294664
:101E80002246FFF78EFF204670BD30462946BDE84A
:101E90007040FFF7A8BF0178002904BF00207047F9
:101EA00000214FF001324358C2FA53F30431002BA2
:101EB000F9D093FAA3F0B0FA80F001EBD000043827
:101EC000704700005AB3844690EA01039B071FD174
:101ED000830707D011F8013B00F8013B013AF7D125
:101EE0001CE08446203A09D32DE9F007B1E8F80751
:101EF000A0E8F807203AF9D2BDE8F0071C3205D473
:101F000051F8043B40F8043B043AF9D2043205D0BE
:101F100011F8013B00F8013B013AF9D160467047E6
:101F200084460020002918BF002A00D17047097894
:101F300048B2002844BF6FF001007047BCF1000FA9
:101F400018BFCCF800100021C3E90011002818BF09
:101F5000012070477F298EBF6FF0010001700120C2
:101F6000704740F24821C2F200010968002904BF0D
:101F700040F24401C2F20001496889680A680921F7
:101F800010477F2884BF0020704742F27032C0F2B1
:101F90000002515C42F2F022C0F20002105C0840E4
:101FA0007047A0F161011A2938BF20387047A0F1AD
:101FB00041011A2938BF40F0200070477F2884BFB4
:101FC0000020704742F27032C0F20002515C42F2CF
:101FD000F022C0F20002105C08407047A0F16101DD
:101FE0001A2938BF20387047A0F141011A2938BF9B
:061FF00040F020007047E4
:101FF8003C200000000000009820000000000303BF
:1020080044200000000000006420000000000000E0
:10201800702000000000000088200000040000205C
:1020280098010020D0000020D8000020D80000200F
:04203800180000008C
:10203C005350494D000000006170705F74696D650C
:10204C00720000000100060030313233343536376F
:10205C003839414243444546736F72746C697374EA
:10206C0000000000B5170000E7170000DD170000A6
:10207C00000000000338FDD8704700007274745FD4
:10208C006C6F675F6261636B656E6400617070009A
:10209C004261636B656E647320666C75736865640E
:1020AC00000000006572726F720000007761726E42
:1020BC00696E6700696E666F00000000646562758A
:1020CC00670000001B5B306D000000001B5B313BA8
:1020DC0033306D001B5B313B33316D001B5B313B8F
:1020EC0033326D001B5B313B33336D001B5B313B7B
:1020FC0033346D001B5B313B33356D001B5B313B67
:10210C0033366D001B5B313B33376D0025734C6FE1
:10211C0067732064726F70706564202825642925AC
:10212C00730D0A00257300003C25733E2025733A7D
:10213C00200000000D0A000020253032780000003D
:10214C00202020007C0000002563000020000000FF
:10215C0021220000982200002422000053756E6496
:10216C006179004D6F6E64617900547565736461BB
:10217C0079005765646E6573646179005468757293
:10218C007364617900467269646179005361747596
:10219C007264617900004A616E75617279004665FE
:1021AC00627275617279004D617263680041707280
:1021BC00696C004D6179004A756E65004A756C79E1
:1021CC00004175677573740053657074656D626555
:1021DC0072004F63746F626572004E6F76656D624C
:1021EC00657200446563656D6265720000414D0067
:1021FC00504D0000256D2F25642F25790025483A78
:10220C00254D3A2553002561202562202565202582
:10221C005420255900430000831F0000A31F000019
:10222C00AF1F0000BD1F0000DD1F0000E91F0000F4
:10223C00551F0000211F000053756E004D6F6E007E
:10224C0054756500576564005468750046726900E2
:10225C0053617400004A616E00466562004D617204
:10226C0000417072004D6179004A756E004A756CC0
:10227C000041756700536570004F6374004E6F76B4
:10228C000044656300002E00000000009222000054
:10229C00942200009422000094220000942200005A
:1022AC00942200009422000094220000942200004A
:1022BC0094220000FFFFFFFFFFFFFFFFFFFFFFFF68
:1022CC00FFFF00006821000044220000A221000052
:1022DC0061220000F9210000002200000922000008
:1022EC0012220000202020202020202020682828D6
:1022FC0028282020202020202020202020202020C2
:10230C002020202048101010101010101010101049
:10231C001010101084848484848484848484101029
:10232C001010101010818181818181010101010146
:10233C000101010101010101010101010101011072
:10234C00101010101082828282828202020202021B
:10235C000202020202020202020202020202021043
:10236C00101010200007032004170201085710401A
:01237C0080E0
:102380000090D00300000000FF00000000000000EB
:10239000B0200000B8200000C0200000C8200000CD
:1023A000D0200000D8200000E0200000E82000003D
:1023B000F0200000F82000000021000008210000AB
:1023C000102100005C2100005C2100005C21000065
:0823D0005C2100005C2100000B
:0400000300000AE906
:00000001FF
